:020000022000DC
:10600000289E0020F9D6020039C50400CDD6020032
:10601000CDD60200CDD60200CDD602000000000091
:1060200000000000000000000000000041D4020059
:10603000CDD6020000000000F9D30200CDD6020048
:10604000BDD40200F1050400BDD40200BDD402009D
:10605000BDD40200BDD40200BDD40200BDD40200F4
:10606000BDD40200BDD40200BDD40200BDD40200E4
:10607000BDD40200BDD40200BDD40200BDD40200D4
:10608000BDD40200BDD40200BDD40200BDD40200C4
:10609000BDD40200BDD40200BDD40200BDD40200B4
:1060A000BDD40200BDD40200BDD40200BDD40200A4
:1060B000BDD40200BDD40200BDD40200BDD4020094
:1060C000BDD40200BDD40200BDD40200BDD4020084
:1060D000BDD40200BDD40200BDD40200BDD4020074
:1060E000BDD40200BDD40200BDD40200BDD4020064
:1060F000BDD40200BDD40200BDD40200BDD4020054
:1061000053B94AB9002908BF00281CBF4FF0FF311E
:106110004FF0FF3000F00CB8ADF1080C6DE904CE83
:1061200000F008F8DDF804E0DDE9022304B0704770
:10613000704700BF2DE9F04F07468C460846099E80
:1061400015463C461946002B40F0C6808242B2FA02
:1061500082F746D94FB1C7F1200E24FA0EFE00FA9D
:1061600007F3BD404EEA030CBC404FEA15481FFA46
:1061700085FEBCFBF8F9220C08FB19C309FB0EFADB
:1061800042EA03439A4528D9EB1809F1FF3004D2BB
:106190009A4502D9A9F102002B44A3EB0A03A4B249
:1061A000B3FBF8F208FB123302FB0EFE44EA034491
:1061B000A64514D92C1902F1FF3303D2A64501D903
:1061C000931E2C44A4EB0E0443EA00401EB1FC4095
:1061D000002334607360BDE8F08F4846DDE7134666
:1061E000F0E702B9FFDE87BB831A01214FEA154EA3
:1061F000AAB2B3FBFEFC200C0EFB1C330CFB02F816
:1062000040EA0343984563D9EB180CF1FF3004D200
:10621000984502D9ACF102002B44A3EB0803A4B2C9
:10622000B3FBFEFC0EFB1C330CFB02F244EA0344FE
:10623000A2424FD92C190CF1FF3304D2A24202D949
:10624000ACF102032C44A41ABEE7C7F1200C20FADB
:106250000CF800FA07F324FA0CFCBD404CEA0302E8
:106260004FEA154EABB2B8FBFEFC110C0EFB1C80C6
:106270000CFB03F941EA0040814504FA07F423D9F5
:1062800028180CF1FF3104D2814502D9ACF102018A
:106290002844A0EB090092B2B0FBFEFC0EFB1C00F0
:1062A0000CFB03F842EA004398450FD9EB180CF1B8
:1062B000FF3204D2984502D9ACF102022B44A3EB81
:1062C000080342EA014191E76146E2E76246F6E7E8
:1062D0006046A2E76346B6E7834205D90EB1C6E938
:1062E00000700021084676E7B3FA83F181B9834252
:1062F00001D3BA420AD8BC1A60EB030301209C46C2
:10630000002E68D0C6E9004C002164E70846F7E794
:10631000C1F1200C8B4022FA0CF41C4302FA01F567
:1063200000FA01F327FA0CF220FA0CFB4FEA1449A9
:106330001343BBFBF9F81FFA84FE09FB18BB1A0CC8
:1063400008FB0EFA42EA0B42924507FA01F73ED9E2
:10635000A21808F1FF3004D2924502D9A8F1020038
:106360002244A2EB0A029BB2B2FBF9F809FB182205
:1063700008FB0EFE43EA024296452AD9A21808F10C
:10638000FF3304D2964502D9A8F10203224443EA1E
:106390000040A0FB0593A2EB0E029A42CE4698461F
:1063A00002D306D14F4504D2B9EB050E63EB0408C6
:1063B000013886B1B7EB0E0362EB080707FA0CFC55
:1063C000CB404CEA0303CF40C6E900379CE7404688
:1063D000C7E74346DBE73146FDE60000000000006A
:1063E00073B5404DD5F85431996811F0010123D1AE
:1063F00001AA40F6034008F009F8044600286ED1CF
:10640000019B9B681B78A3B909F08EFABFF35B8FE1
:106410002B4653F8CC2FBFF35B8F02F00502BFF37E
:106420005B8F53E8001F43E800200028F9D1BFF339
:106430005B8F01981DF03EFE01AA002141F203008E
:1064400007F0E4FF0446002849D1019B26489968DB
:106450000822013126F02FF901981DF02BFE21466C
:1064600001AA41F2010007F0D1FF0446002836D10D
:10647000019883685A7885F86820D9789A7842EA32
:106480000122A5F86A201A7985F86920197ADA7943
:1064900042EA0122A5F86C205A799B7942EA03234B
:1064A000A5F86E301DF006FE214601AA41F2020059
:1064B00007F0ACFF044690B9019B0C489968402254
:1064C000013126F0F8F8094826F0A9F901981DF0E5
:1064D000F1FD95F874305A060AD46FF01204204684
:1064E00002B070BD40000020B0000020B8000020C5
:1064F000214601AA42F2030007F088FF0446002863
:10650000EDD1019BBA4899680822013126F0D3F8F1
:1065100001981DF0CFFD214601AA42F2020007F0CA
:1065200075FF04460028DAD1019B9B68B3F801206F
:10653000A5F8FC2091B221B1DA78AE4811462BF0D3
:106540006CF901981DF0B6FD95F8746016F0200600
:1065500000F0218195F894301B0712D501AA002183
:1065600042F21C0007F052FF04460028B7D1019800
:106570008368D3F80120D3F80530C5E936231DF030
:1065800099FD95F8D0309E0623D50DF1020168469D
:1065900026F0D7FB04460028A1D1042142F22400B2
:1065A00007F0D8FE0646002800F0FC8004210830E1
:1065B0002AF0AAF8BDF800300380BDF8023043800D
:1065C0002246314642F2240007F020FF044600280C
:1065D00085D195F8D0305C0610D501AA002142F291
:1065E0002A0007F013FF044600287FF478AF0198D3
:1065F00083685B7885F818311DF05CFD082142F254
:10660000010007F0A7FE0446002800F0CB80082117
:1066100008442AF079F895F8D01011F0400F02469E
:1066200040F2022308BF032388074CBF43F02C002D
:1066300043F00C008B0695F8D13048BF40F0400085
:1066400013F0090F95F89A3018BF40F4006003F07A
:106650000603CE0748BF40F01000062B08BF40F4E9
:10666000C070002126F029FA2146002242F20100E2
:1066700007F0CCFE044600287FF431AF95F8743063
:10668000B5F8FC10980600F1A280D9B901AA41F230
:10669000050007F0BBFE044600287FF420AFB5F8E4
:1066A000FC3063B9019B9B685A78997842EA0122D1
:1066B000A5F8FC209A884F4811462BF0AEF80198B7
:1066C0001DF0F8FC082140F6014007F043FE0446A7
:1066D000002867D0082108442AF016F895F8D03031
:1066E000D907024679D540A1D1E9000126F0E5F9A4
:1066F0002146002240F6014007F088FE04460028AB
:106700007FF4EDAE014601AA4FF6014007F07EFE90
:10671000044648BB01981DF0CDFC214601AA4FF666
:10672000024007F073FE0446F0B9019B32489968B5
:106730000222013125F0BFFF01981DF0BBFC95F846
:10674000B9305B0710D501AA21464FF6034007F088
:106750005DFE48B9019B294899680122114425F042
:10676000AAFF01981DF0A6FC26F0A9FD044600280A
:106770007FF4B5AE0AF0FCF9044600287FF4AFAE12
:10678000EB79002B3FF4ABAE04211D4826F01AF93B
:1067900008F0D2F9A3E6022140F66D4007F0DAFDD9
:1067A000044610B96FF0680499E60221083029F018
:1067B000ABFF0123037046702146324640F66D4020
:1067C00007F024FE044600283FF4C4AE87E6002903
:1067D0007FF478AF6FF0040481E60A484FF000516F
:1067E00084E700BFAFF300809088000200800020A3
:1067F0001001002040010020F9000020F8000020D6
:106800000C010020108800022DE9F041D0E90B3581
:10681000866A5C193034A6428846174618D81C4D43
:10682000A3FB050118A3D3E90023FFF769FCA41B10
:1068300020F07F40C8F8000013A3D3E90023A4FB95
:106840000501FFF75DFC20F07F403860BDE8F08176
:106850000F4C0DA3D3E90023A6FB0401FFF750FC66
:1068600005F1300120F07F40C8F8000006A3D3E90D
:106870000023A1FB0401FFF743FC20F07F403860B8
:10688000BDE8F081AFF300808D49FD1A07000000DC
:1068900000CA9A3B000000002DE9F04F764C91B001
:1068A00094F86A50002848D015F0010559D194F8A1
:1068B0002500FF2300F0030084F8263019F032FA97
:1068C00094F86A00470729D494F8292094F83530C1
:1068D00004EB820204EB8303D76AD3F8389087B1C4
:1068E0006548394612F0C0FD3B785E0605D50621A5
:1068F0000DF01AFE002800F015825F48494612F09C
:10690000B3FD3B7813F00E0F30D1236A002B00F05B
:10691000BF800C25284611B0BDE8F08F2A4604F14F
:106920006B01C0F3C00019F08FFBFF2884F826002C
:10693000CAD0284619F03CFAC6E7EA0711D5236AFF
:1069400053B193F8202042F0020283F82020236AFA
:1069500093F82030DB07DCD411B0BDE8F04F12F023
:106960008FBA0025284611B0BDE8F08F94F8243086
:106970000121C3F342030CA88DF830300DF060FF05
:1069800000286BD099F801100246384612F028FB17
:106990003A49B4F8689031230026A360A0FB0101B6
:1069A00033A3D3E90023C4E9056626706660E66078
:1069B000FFF7A6FB20610FF047F98046B9F1000F01
:1069C00007D13E7806F00F06A6F10106B6FA86F664
:1069D000760994F82400236966F3000010F001069C
:1069E00084F8240040F06E81254A2648049303F27F
:1069F0004713A9FB0001069402961360912303FB41
:106A00000911214B0793214B05934FF6FF73099210
:106A10004FF0020903930EAF15A3D3E90023CDF87D
:106A200038900897FFF76CFB4346CDE900604A4673
:106A3000304603210EF088FF394611F05FFC68B93B
:106A400094F86A3043F0010384F86A3012F0F6FEDD
:106A5000002886D1012019F047F95BE7236A002B53
:106A60003FF457AF12F0CAF953E700BFAFF300800D
:106A70008D49FD1A070000004C5B002000CA9A3BBC
:106A8000C45B0020002AE784E177030051900300F3
:106A900011F07EFB8246002800F04C8111F084FB4F
:106AA0008346002800F0438113F086FD0646002847
:106AB00000F03A814FF6FF73406F338506F11C03F7
:106AC0000B93002800F0388106F1680206F164019A
:106AD0000DF036FDB6F86030994923F4EF6323F0EA
:106AE000070343F4887343F00103A6F8603096F877
:106AF000393003F03F0363F07F0386F8393096F8AE
:106B00007A3023F0070386F87A3096F83C3023F089
:106B1000070386F83C3096F8D6304FF0000868F34B
:106B2000000386F8D63006224FF01B13C6E9163153
:106B3000A6F8C020C6E91288C6F87480A6F8788046
:106B4000A6F82E80C6F8308086F83B80C6F85080C4
:106B5000A6F8C480A6F8C880A6F8D080A6F8CC8095
:106B6000FF230DF1310106F1D7008DF831308DF89A
:106B700032308DF833308DF834308DF835308DF873
:106B800036308DF8308025F096FD96F8D61068F3F3
:106B9000410186F8D610FF2306220DF1390106F1D6
:106BA000DD008DF839308DF83A308DF83B308DF8B6
:106BB0003C308DF83D308DF83E308DF8388025F032
:106BC0007AFD96F8E430A6F8F08023F0070386F803
:106BD000E43086F8F280C6F81481A6F81881A6F889
:106BE000308110F097FD96F84A31A6F8488123F0DD
:106BF000030386F84A3196F87A30A6F8508123F0DC
:106C0000180386F87A3096F8763186F8538123F0A7
:106C1000070386F8763196F89631C6F854A168F3E2
:106C2000451386F8963196F8BE31A6F8748168F35C
:106C3000C303002286F8BE310023C6E94E01C6E92F
:106C4000502386F8E580A6F89481C6F8EC80A6F873
:106C5000BC81A6F8C88114F01FF8A6F8D20014F081
:106C600021F8D6F8CC21374BA6F8D4001340C6F84B
:106C7000CC3114F01DF896F8D03160F3020386F899
:106C8000D03114F01BF806F11C03236296F8D031C2
:106C9000C6F8D48160F3C503C4E918ABC6E97888A7
:106CA000C6E97688C6E9058886F80080F66186F828
:106CB000D0311AF0FBF900283FF458AE12F09EF8DC
:106CC000032527E60020204ADFF88090049302265F
:106CD0000EAF019305920321CDE9020006944346CD
:106CE00000900897CDF81C9032460E960EF082FE6A
:106CF000394611F003FB00287FF4B0AE144A059228
:106D00004AF2D8320092CDE90300CDE90100CDF876
:106D10001C90089706944346012203210E960EF01C
:106D200069FE89E61225F5E5584611F043FA50460A
:106D300011F034FA0725EDE506F16C007067C3E643
:106D4000480148010000FFF651900300E17703007D
:106D50008D8B03000000000070B590F824308AB0DD
:106D6000C3F342030D46044601210DF123001646EC
:106D70008DF823300DF064FD71780246284612F03C
:106D80002FF91D491AA3D3E90023A0FB0101FFF746
:106D9000B7F923699842054620D21B1A00220192B6
:106DA000164A0293164BA21AA3FB02320221920941
:106DB00000230A4409AE099112490591CDE9033334
:106DC0000321D2B20696009318460EF085FE314696
:106DD00011F094FA48B925610AB070BD02D9C21AFF
:106DE0000023DCE700200AB070BD0C200AB070BDA3
:106DF0008D49FD1A0700000000CA9A3B4C5B002039
:106E000089888888E177030038B5194C9DF810E02F
:106E100094F844C01CF0010522D163F3420C4001F8
:106E200094F83230A1874FEACE0E0EF0180E00F023
:106E3000200040EA0E0023F0380303430D4884F895
:106E40003230A2FB0001912303FB021106A3D3E918
:106E5000002384F844C0FFF753F92064284638BD66
:106E60000C25284638BD00BF8D49FD1A07000000DB
:106E7000E85B0020002AE78410B59DF808C00446AE
:106E800049014FEACC0000F0180001F0200CA17D70
:106E900022844CEA000C0C4821F038014CEA010C29
:106EA0009122A3FB000102FB031184F816C004A386
:106EB000D3E90023FFF724F9606210BDAFF300802F
:106EC0008D49FD1A07000000002AE7840000000039
:106ED0002DE9F047044600F1350190F8440094F89C
:106EE0003230C0F3400060F386138CB084F8323047
:106EF0000EF0E2FE94F83220A38F4D48E46102F0D8
:106F000079020025A3FB000184F83220912202FBC4
:106F10000311C4E9055544A3D3E900232570FFF705
:106F2000EFF83123C4E90153236CE5600933A0F184
:106F30003102934232BF23612261256406460EF07E
:106F400083FE236A07460DF12C08002B4CD0394DE7
:106F5000394BCDF820800694651BA3FB05353448DA
:106F6000A38F4FF0000AA3FB00019122CDF80CA0E3
:106F700002FB031123690493304B0793304B0593B5
:106F80004FF0020928A3D3E90023CDF82C90FFF796
:106F9000B7F8104619464FF47A720023FFF7B0F89D
:106FA0002D090435EDB22A46CDE901603B460321A7
:106FB000CDF800A050460EF01DFD414611F09EF99F
:106FC000054668B994F8443043F0010384F844302E
:106FD00012F020FA0446F8B128460CB0BDE8F0875C
:106FE0000C200CB0BDE8F087CDE90A332169434697
:106FF0000AAA032001F0E0F90B990029A7D0114853
:1070000009A3D3E90023A1FB0001FFF779F80A9F48
:1070100020F07F4007449AE7484618F065FE204676
:107020000CB0BDE8F08700BF8D49FD1A07000000D5
:10703000002AE784E85B0020398EE338E17703001B
:107040003996030000CA9A3B2DE9F04FC38D458E57
:107050001D4490F81A31ADB22944164613F00702C8
:107060008BB0044689B20AD0531E042B00F2708301
:10707000DFE813F0C6013702A10150013A02B0F86F
:10708000F470C91B1FFA81F8090400F16E8190F9B0
:107090003930002BC0F26A8294F8F03084F8F13075
:1070A00094F8942194F8953194F8181184F81911F2
:1070B00093420AD094F8963103F00F03062B04D1C3
:1070C000002384F89521A4F8C830BF4BD4F814915C
:1070D0001A68944204BF00221A60B9F1000F00F050
:1070E0005A81D9F80000002800F05581B4F81C310D
:1070F000B4F82AC04268C4F814216345B4F81E21CC
:10710000B4F8201100F03A82B4F828C0A9F81E3073
:10711000182389F804300023A9F806C0A9F8202014
:10712000A9F8221089F81C30494611F049F811F0ED
:1071300051F8A368002B09DAE168626823F0004384
:1071400091422CBF7618B618A360F61A608DB4F879
:107150001C9110FB08F080B2B0FBF9F119FB01F3B0
:107160009BB298421FFA81FA80F004811B1A40F208
:10717000E241964803FB01F1A1FB000190A3D3E992
:107180000023FEF7BDFF20F07F400644E38D1F443F
:1071900094F939307D1B554440F2E24B002BE585D4
:1071A0000BFB09F7C0F20C82D4F82411874884A3A2
:1071B000D3E90023A1FB0001FEF7A2FF20F07F48E6
:1071C0003D4608F10108824AB4F82031B4F81E01A6
:1071D0008049A4F82A903A44B2FBF7F2A4F8C620FA
:1071E00042F2107202FB03733944013BB1FBF7F129
:1071F000B3FBF7F78AB2831D9A42A085A4F8C27048
:10720000A4F8CE2004DDC0F57F43FA331A4492B2CD
:1072100094F81A31A4F8CA201B0744BF0023A4F82D
:10722000C430022101201CF089FC00220221814689
:1072300001200DF0D5F968494FF4F87220460DF0A1
:107240005FF900F1050A5FFA8AFA644B009452462E
:10725000012100200EF058FC30F002030CD0604AEF
:107260006049614840F6CB4323F01DF9404080F36C
:1072700011884FF0030002DF544FA5FB077B50A39A
:10728000D3E9002338465946FEF73AFF20F07F4500
:1072900056480723A5FB0001381A03FB05116BEBC9
:1072A00001014FF47A720023FEF72AFFCDE9015065
:1072B00008940694CDF80080216994F939504C481F
:1072C00004914C494C4C079411EA250138BF014602
:1072D00005914FF6FE71334603915246012100207D
:1072E0000EF088FB30F002030CD03D4A3D493E4889
:1072F00040F6E54323F0D7F8404080F311884FF083
:10730000030002DFB9F1000F40F0548100200BB000
:10731000BDE8F08F828D90F81A51D0F8F83006321F
:107320001144D0F8D42189B26FF30205A0F8F4100B
:107330001981A3F10900D4F8D81184F81A5122B1A7
:1073400094F87651AE0740F18981002900F09D81C3
:10735000D4F8DC21116843F8091C106053F8092C9B
:10736000C4F8DC01002A00F08D816FF076000BB0CC
:10737000BDE8F08F09FB110140F2E243134889B2E6
:1073800003FB01F1A1FB00010DA3D3E90023FEF7EC
:10739000B7FE361AFAE6124A184913484FF4426308
:1073A00023F081F8404080F311884FF0030002DFA2
:1073B000D9F800009AE66FF00F000BB0BDE8F08F2F
:1073C0008D49FD1A07000000445C002000CA9A3B6A
:1073D000FF5962027FC3C90178350020259D030053
:1073E0003C5605001C5705002C5105008D49FD1A1F
:1073F0002DEB03003DE90300CD9C03000857050079
:10740000DFF81483012010F0EBFE0746002800F09F
:107410004D81C2480DF03EF80546002800F0468137
:10742000BF4B1A68002A00F0178110F0F7FE3B6886
:10743000D4F814215A602B79C4F8147143F0030373
:107440002B710C236B710023EB7194F828312B7294
:10745000B44AD4F82431A2FB03239B0AA5F80930CF
:10746000B4F81C31A5F80B30B4F81E31A5F80D3076
:10747000B4F82031A5F80F3094F81A31C4F8FC6044
:10748000032262F3020384F81A31A368002B0ADA9C
:10749000E168626823F0004391422CBF7618B61869
:1074A000F31AC4F8FC30A04B01220935C4F8F85097
:1074B00002211046C3E902480DF0C4F800283FF449
:1074C00054AF9A4A9A499B4840F6733322F0EBFF37
:1074D000404080F311884FF0030002DF6FF0760028
:1074E00015E7DFF854828DE7D0F8F820D0F8D431D2
:1074F00090F8F00084F8F10094F81801884984F8B5
:10750000190194F8940184F8950100200860D4F8DA
:10751000D801A2F10901B3B194F87651AD0712D4A4
:1075200094F8CF51EF070ED4D4F8E051AB4200F0FD
:10753000D78058B9187900F00300032800F0DF80E5
:10754000C4F8D83104E0002800F0A980D4F8DC3178
:10755000186842F8090C196052F8093CC4F8DC11AB
:10756000002B00F0A6806FF08B00D0E690F8E5309D
:10757000002B3FF491AD80F8E52091E5B4F82CC0E4
:1075800094457FF4C1AD40F2E24C0CFB03FE42F2A5
:10759000107C0CFB01EC0CF1FF3CBCFBFEFCB4F8D6
:1075A000C2E01FFA8CFCE6457FF4AEAD012389F8FA
:1075B0000430B9E50122022110460DF011F8A5E6CC
:1075C000226CA36C02FB1833A36419F0C3FD0546BB
:1075D00094F8E400DFF86481C0F3C20019F0BCFD48
:1075E000054407FB05F5564B94F8282105F574254D
:1075F00005F23F25A3FB0535AD0CA36C25640BFB01
:1076000002F205FB0AF022657A080344963A934297
:1076100028BF1346C4E911230023A0FB0801C4F8C6
:10762000EC303BA3D3E90023FEF76AFD3D4B361A4D
:10763000D4F82401A3FB0030800A0BFB00F0A0FB70
:10764000080133A3D3E90023FEF75AFD7D1BB4F8EC
:107650001C9120F07F48B6E51C60E6E694F8CF5117
:10766000ED073FF572AED4F8E051AA4226D00029CA
:107670007FF46EAE117901F00301032962D0C4F8E2
:10768000D82167E6C4F8E4016FE643F8092CC4E9A1
:107690007500C4F8DC01002A7FF467AEF2E742F817
:1076A000093CC4E97511C4F8DC1159E76FF06800B2
:1076B0002DE6C4F8E4116FF08B0028E61568C4F8D5
:1076C000E05100297FF444AE116843F8091C1060B2
:1076D00053F8092CC4E97600002A7FF446AED1E7BE
:1076E0001D68C4F8E05100287FF430AF186842F8F4
:1076F000090C196052F8093CC4E9761130E7D879D1
:107700000328F3D00A287FF41BAFEFE7AFF3008024
:107710008D49FD1A0700000089F10300D85C0020A4
:10772000445C00205917B7D1D00E00203C5605000C
:10773000305405002C5105008185020000CA9A3B97
:1077400083DE1B43D1790329BED00A2997D1BBE739
:10775000074A0849084840F6C73322F0A4FE4040D3
:1077600080F311884FF0030002DF4FF0000849E674
:107770003C5605008C5105002C510500000000000E
:107780002DE9F04F0B68D2F800B01B6897B08A461D
:107790000A93037F00F11E01C3F3801304461546CC
:1077A00014A806228DF8473024F085FF9AF81100BE
:1077B0000C90FF280DF1480900F083804A460DF136
:1077C000470117F091FF9DF847600236F6B28DF839
:1077D00047600A9B277FD4F800C0CDF82CC003F186
:1077E0007108FF094B4606F001024146384613F086
:1077F0006BFA00284BD19BF8D6200D9066F341021E
:107800008BF8D620494606220BF1DD0024F053FF09
:107810009BF8D62067F3000241468BF8D6200BF187
:10782000D700062224F047FF2F1D032204F12E016A
:1078300005F1080024F03FFF05F11806042204F1C9
:107840002A01384624F037FF052204F13A01304678
:1078500024F031FF304605210CF0F2FF6A7F94F8E6
:107860003F1000F03F0060F305026A77C1F30402A5
:10787000AA77A68EEE810128B6B201F01F0206D9C2
:107880001B3202F01F020B2A01D80D9B0EBB0A9B74
:10789000E6680B9800225A6195F82030012762F3C0
:1078A000000385F820302146277110F089FC3068EC
:1078B0003771314610F084FC10F08CFC17B0BDE835
:1078C000F08F062214A9484624F0F5FE9DF8476083
:1078D0007FE7DAF80020536094F8372094F83630C8
:1078E00043EA02232B829BF8E430628E0E92490910
:1078F00061F3C5038BF8E43019F02CFC0D909BF874
:10790000E400C0F3C20019F027FC0D9BC24A298A8B
:1079100040F2E24808FB06F6034406FB03F303F5D6
:10792000742303F23F23A2FB03239B0C6B6294F8A6
:107930003130BA4A08FB03F3AB637308963BAB6282
:10794000B4F83880B64B42F210703244B2FBF6F213
:10795000ABF8C6201FFA88F200FB02623344013AFA
:10796000881DB2FBF6F2B3FBF6F3ABF8C2209AB275
:107970008242ABF8CE2004DDC1F57F41FA310A44E2
:1079800092B2ABF8CA20394604220BF1E80024F089
:1079900092FE234613F81C2FC2F34011DA070F9111
:1079A0000D9100F100814FF48073A3830A9B93F83B
:1079B000260018F067FC0146062204F12B0000297E
:1079C00000F0E98004F1240124F075FE0C9BFF2BEC
:1079D00004F1250000F0E28014A9062224F06BFED9
:1079E0009DF84730A3774946062204F11F0024F092
:1079F00062FE9BF8E430EA896286C3F3C2032A8AF6
:107A0000A28684F83830A4F83680584612F0E0FD9B
:107A10002146A881E080DAF804400B9810F0D0FBF2
:107A2000AB89E3801B2323710D9BD4F80080002BCE
:107A300040F0CE809DF83C3023772146404610F040
:107A4000BFFB10F0C7FB95F84500B5F84040B5F80E
:107A50004270012100F0070019F08AF9274407F568
:107A6000E177391881466F4800273123CBF8083079
:107A7000A1FB000166A3D3E90023CBF80470CBF887
:107A80000C70FEF73DFB6B6A0E9ADAF80C4020F0A2
:107A90007F40F61A40F2E24303FB024402213A46D9
:107AA000CBF8100001200CF09BFD0A9D284611F038
:107AB00097FC821C5C4B0095D2B2384601210EF037
:107AC00023F804F2B2440128A4EB090400F08B80EF
:107AD0000A9B93F82430DB0772D4584612F078FDE5
:107AE000DFF84091A6FB098649A3D3E900230546A8
:107AF00031464046FEF704FBDAF80830CDF818B0FE
:107B0000A3F13A0A494B0793494B05934FF4E473A9
:107B10000893DBF81030049320F07F47454800239A
:107B2000A7FB000103930723B8EB000003FB071139
:107B300066EB01014FF47A720023FEF7E1FA34A3F9
:107B4000D3E90023CDE90170A4FB0901FEF7D8FABF
:107B5000053520F07F40EDB2009053462A460121C2
:107B600000200DF047FF30F002030CD0324A3349B9
:107B7000334840F2C91322F096FC404080F311884C
:107B80004FF0030002DF0122022110460CF028FD15
:107B900017B0BDE8F08F24F099FD17E70622002109
:107BA00024F094FD1CE7244A26492548F12322F0BD
:107BB0007AFC404080F311884FF0030002DFF2E6C8
:107BC000002301220093184611460DF09DFF84E723
:107BD0006B7F43F040036B77384617F083FB01233C
:107BE000E883237729E710F0C7FB0A9B83423FF421
:107BF0006FAF114A1449124840F29F2322F053FC00
:107C0000404080F311884FF0030002DF60E700BFBF
:107C10008D49FD1A0700000083DE1B43FF596202F5
:107C20007FC3C90100CA9A3B01E90300D1E8030000
:107C30003DE903008D49FD1A245805001C57050035
:107C40002C5105003C520500805805000000000042
:107C50002DE9F04F8BB01F46BDF858300693CDE9A3
:107C60000401BDF860309DF85490BDF85CB00393FA
:107C70000020164611F0F0FD002800F0B78109F051
:107C80000108054640460EF007F80290B8F1000FD3
:107C90006AD1149B02993A46404613F015F8002821
:107CA00040F0B5812B6A05F11C020792002B62D0CF
:107CB000D5F820A0DAF8004007F0010B9AF844004C
:107CC000C0F3C00100F0070019F050F8BAF84010F6
:107CD00000F5E1700144BAF842000144D648D4A34B
:107CE000D3E90023A1FB0001FEF70AFA20F07F4050
:107CF0002061304618F038F895F833306FF34103BF
:107D000085F83330FF2385F83430002E00F072817F
:107D1000A9F10203012B40F27E8195F844301499B9
:107D200069F3420385F8443095F833306BF3000370
:107D300085F83330062205F1240024F0BCFC039BB7
:107D40002B8605F11C00DDE9042300210096FFF7D6
:107D500093F819F0ABF9002840F07A812846FFF734
:107D6000B7F80BB0BDE8F08F06210CF0DDFB002862
:107D70008FD11220F5E710F00BFA0790002800F0E1
:107D8000A28112F019FC0446002800F0BA812030CC
:107D90000CF06AFD04F11C0A002840F083810321E5
:107DA00004F1240018F090FE069B606F63854FF687
:107DB000FF73A4F82CB02385002800F0808104F123
:107DC000640104F168020CF0BBFBB4F860309B4A1C
:107DD00023F4EF6323F0070343F4887343F00103B4
:107DE000A4F8603094F87A3023F007034FF0000BCA
:107DF00084F87A304FF01B13C4E91632C4F874B01B
:107E0000A4F878B0A4F82EB0C4F830B004F134006F
:107E100017F01CFA94F8393060F30503012184F857
:107E200039300DF1270018F04FFE9DF82720844BC4
:107E3000DDF80CC0A08D84F83BB0A3FB0213DB0877
:107E400003EB4303A2EB8303053384F83A3094F841
:107E500039300699A4F8C4B003F03F0384F83930F0
:107E600094F83C30A4F8C8B023F0030340F2E24297
:107E700084F83C30734BA4F8D0B002FB01F10A4601
:107E80000B44B3FBF1F37049A4F8CCB01144B1FB3F
:107E9000F2F1A4F8C61042F2107101FB0C21013975
:107EA000B1FBF2F2A4F8C2200622A4F8C020811D82
:107EB0009AB28A42A4F8CE2002DD063A121A92B291
:107EC00094F8E430A4F8CA2023F0070384F8E430DF
:107ED0000023A4F8F03084F8F230C4F81431A4F888
:107EE0001831A4F830310FF015FC94F84A21079BA3
:107EF000C4F8543122F0030284F84A2194F87A201D
:107F000022F0180284F87A2094F8762122F00702F1
:107F100084F8762194F89621002363F3451284F8BF
:107F2000962194F8BE21A4F8483163F3C302C4E952
:107F30004E0100210020A4F8503184F85331A4F8F8
:107F40007431A4F89431A4F8BC31A4F8C831C4E960
:107F5000500184F8BE2112F09FFEA4F8D20012F066
:107F6000A1FED4F8CC11394AA4F8D4000A40C4F8D0
:107F7000CC2112F09DFE94F8D02160F3020284F827
:107F8000D02112F09BFE94F8D021149960F3C50221
:107F900084F8D02194F8D62007F0010B6BF341024E
:107FA000002384F8D6203122C4E97833C4E976333B
:107FB000C4F8D4316360E360A26004F1DD000622FE
:107FC00024F079FB94F8D620029969F3000284F832
:107FD000D62004F1D700062224F06DFB0023C5F85B
:107FE00020A0C4E905332370E46167E60C200BB0E0
:107FF000BDE8F08F18F0F4FA00283FF489AE149928
:108000003846324618F020F885F8340080E60B2018
:108010000BB0BDE8F08F002017F0CAFE95F83330A2
:1080200043F00203C14685F8333076E6AFF30080B3
:108030008D49FD1A0700000000CA9A3B480148011B
:10804000ABAAAAAA7FC3C901FF5962020000FFF6CA
:108050002C6AA36D63B12D4A2D492E484FF49763C6
:1080600022F021FA404080F311884FF0030002DF34
:1080700004F14C0104F148000CF066FA06460028B1
:1080800031D02768A665D7F85441F4B1204610F0E6
:1080900085F8384612F096FA002303202B620BB0C5
:1080A000BDE8F08F194A1C491A48BF2322F0FBF99A
:1080B000404080F311884FF0030002DF6FE604F1C7
:1080C0006C0060677BE607204BE6104A13491148B5
:1080D00040F2C14322F0E7F9404080F311884FF0AD
:1080E000030002DFD2E7094A0C490A4840F2BA43CA
:1080F00022F0D9F9404080F311884FF0030002DFED
:10810000BFE7079810F04AF807202AE6B0580500A4
:10811000685505002C5105000853050094560500CC
:108120002DE9F04F80468FB004460F46154600F10A
:10813000240106220CA818F81C6F24F0BCFA94F84D
:108140001C9018F0010FC9F3401BC6F3C016D946A6
:1081500040F004810023A383B97C97F8118011F0CB
:10816000010104F12B004FF0060200F0E18004F160
:108170001E0124F0A0FAB8F1FF0F04F1250304F169
:108180001F0A00F0DF805246404604F11E010B93A7
:1081900017F0AAFA0B9B1846A37F02330CA9A3770A
:1081A000062224F088FA3B68D3F800A0EB896386A6
:1081B0002B8AA386BAF83030E38618F0C9FF84F81A
:1081C0003800D5F80080404612F002FA7E68A88197
:1081D0002146E08020680FF0F3FFAB89F3801B237A
:1081E00034683371B9F1000F40F0C68086F81CB0D6
:1081F000314620460FF0E4FF0FF0ECFFD8F80430D2
:10820000D8F8086095F84400B5F80E90FC689E42D6
:1082100038BF1E46C0F3C00140F2E24300F0070041
:1082200003FB09F918F0A2FD203400220221241AD0
:1082300001200CF0D5F9504611F0E6FA021D564B1C
:10824000CDF800A0D2B2012100200DF05DFC30F08D
:1082500002030CD0514A5249524840F2C93322F02D
:1082600022F9404080F311884FF0030002DF4FF005
:10827000000A534603220121CDF800A050460DF01C
:1082800043FC404612F0A4F9BB68CDF81880093BC6
:108290009E1B454B0793454B059340F2F933444FE2
:1082A0000893D8F81030A9FB0798CDE903A3451D22
:1082B00037A3D3E9002348464146FDF721FF104686
:1082C00019464FF47A720023FDF71AFF30A3D3E961
:1082D0000023029041464846FDF712FF2CA3D3E944
:1082E00000230190A4FB0701FDF70AFFEDB220F087
:1082F0007F40009033462A46012150460DF07AFB1C
:1083000030F002030CD0254A2549264840F2FA33C2
:1083100022F0C9F8404080F311884FF0030002DFDB
:108320000122022110460CF05BF90FB0BDE8F08F7E
:1083300024F0CCF9B8F1FF0F04F1250304F11F0A72
:108340007FF421AF18460622002124F0BFF9A6775A
:108350000CA95046062224F0AEF924E70F4A15492D
:1083600010484FF4527322F09EF8404080F3118879
:108370004FF0030002DFEDE66B7F43F040036B77C5
:10838000281D16F0AFFF0123E883337730E700BFE5
:108390008D49FD1A07000000F9EA0300B0580500F6
:1083A0001C5705002C510500FDEA03002DEB0300CE
:1083B00000CA9A3B3C5205002DE9F04F8FB04FF0B8
:1083C000FF0915468DF82F900A1DCDF81090002159
:1083D000DFF8FC80DFF8FCB0DFF8FCA0DFF8FC90F1
:1083E00009930446089219600C91059106910DAF0E
:1083F0000CAE02230D93CDE9018700962B460DF1BB
:108400002F02214600200DF0C1FB02282FD00D9B2A
:10841000002B32D19DF82F00FF283ED00538C3B283
:10842000052BE6D880B212F0DBF80028E1D090F9F5
:108430003930002BDDDB049902690C9BFF290CD03D
:1084400006990792184604930DF000FC059B089AC4
:1084500099188842049B079A22D8CDE905239DF8F4
:108460002F300493C5E7214600200DF0D5FB0D9B6E
:10847000022BF8D00D9B002BCCD073235A465146CB
:10848000484622F010F8404080F311884FF0030076
:1084900002DF9DF82F00FF28C0D1049BFF2B10D0D6
:1084A000DDE905320E481344A3FB0001072202FB5D
:1084B000031105A3D3E90023FDF722FE099B8030B9
:1084C00018600FB0BDE8F08F00CA9A3B00000000B2
:1084D000D1EE0300FC580500405905002C51050061
:1084E0008D49FD1A0000000070B582B01C46019253
:1084F0001546064601AA0220FFF75EFF23680BB36C
:108500000198431B1B021FD429460DF09FFB1A4AFA
:1085100003460721A0FB020201FB032114A3D3E9B8
:108520000023FDF7EDFD226802442260002A09DBEA
:1085300040F2E24006FB00F0904203D2121A82425F
:10854000FCD8226002B070BD014628460DF07EFBCB
:10855000094A03460721A0FB020201FB032104A3F1
:10856000D3E90023FDF7CCFD2268121A2260DDE773
:1085700000CA9A3B000000008D49FD1A000000006F
:108580002DE9F041B0F8A41188B0044640F2E2436E
:108590004748002603FB01F105AD0623C5E9016646
:1085A0008DF80F30A1FB00013FA3D3E9002305960E
:1085B000FDF7A6FD0DF10F0301950093B4F89A3174
:1085C000049004AA2046012116F084FC9DF80F8037
:1085D00008F1FF3C5FFA8CFC0DF11603304604F500
:1085E000D27703EB4C0C04F5D8764FF6FF7E3A8831
:1085F000B8F1000F0AD02B46724504D01988914279
:108600004FF001001DD002339C45F5D10237BE4228
:10861000EDD1D4F8F83048BBBDF8142040F2E24167
:1086200002FB01F1100AC4F824111A70587094F872
:108630001A31042262F3020384F81A3108B0BDE84B
:10864000F081D4F8F81040F2E24302FB03F3100A81
:10865000C4F824310A70487094F81A31042262F385
:10866000020384F81A3108B0BDE8F081032203F850
:10867000042C13F8052C94F81A11052542F0030276
:10868000112003F8020C03F8052C65F302010F20FA
:10869000202203F8010C1A7084F81A1108B0BDE802
:1086A000F08100BFAFF300808D49FD1A0700000084
:1086B00000CA9A3B0000000038B5044619F0D8FB08
:1086C000A27DC2F34103013303F00303032B34D033
:1086D00063F34202A27503F1250018F005FB6368FD
:1086E0000BB32369FBB11BF0B3F805460DF0ACFAF0
:1086F000C11C00201BF07AF81BF0F6F81BF0A8F85C
:1087000029460DF0A3FA124903460722A0FB0101F6
:1087100002FB03110CA3D3E90023FDF7F1FC23694D
:108720001B1A236138BD0DF08FFAC11C00201BF00D
:108730005DF8BDE838401BF0D7B86FF34202A27570
:108740002520CAE7AFF3008000CA9A3B0000000072
:108750008D49FD1A000000002DE9F04F87B0044656
:108760001AF058FEC0B250B918F016FBB4482146B2
:108770001AF02AFD07B0BDE8F04F1AF021BE1AF03A
:1087800069FE05461AF084FF83461AF08BFF814686
:108790001BF0A0F906461BF081F982461AF03CFF57
:1087A000EDB280461AF01EFF18F0F6FA002DDDD06B
:1087B00001200FF087FE0546002800F07D811BF0A8
:1087C000FF0BF6B240F06F81002E40F0CC80FF2707
:1087D0005A463B463146204619F078FD0028C5D060
:1087E0002B7F626800218DF813105FFA88F803F080
:1087F0000F01002A00F0D380626892F820209007D1
:1088000000F1CD800729B1D0A27D120740F162812D
:10881000002940F0AE806B7F252B00F222810420DE
:108820000FF050FE0028A1D01BF066F8636A804666
:1088300043B9238C40F2712202FB03F3B0FBF3F245
:1088400003FB120823681A697E4B0721A2FB03036E
:1088500001FB023178A3D3E90023FDF751FCA0F21C
:108860004233434582D31AF0AFFE3846636817F0AF
:1088700017FDE37D9B07814640F1CF81002800F082
:10888000CC8183464FF001081AF0F2FD2B7F05AA38
:10889000039205F11E0201468246C3F38013009243
:1088A00020460022CDE9018B19F02AFD50461AF02E
:1088B00065FD1AF0A5FD002840F0C58162482146FB
:1088C0001AF082FC6168A37D91F8202043F08003B8
:1088D00042F0010281F82020A3750FF011FE16234B
:1088E000804603714FF6FF732D7FC38051462422CB
:1088F0001C3023F0E0FE98F81C30C8F80840C5F39F
:10890000401565F3451388F81C301AF0A1FF0021CB
:10891000C8F810000120059D1AF040FD002E08BF88
:10892000FF2788F81970E37D2D1A13F00203C8F8A9
:10893000145003D0B9F1000318BF012398F81A208E
:1089400063F3000288F81A200FF0DAFD034641466F
:10895000D8F80000C8F80C300FF0E8FD0FF0F6FD75
:1089600007B0BDE8F08F5FFA8AF017F027FD0746E1
:108970002EE7012915D16B7F0C2B7FF4F7AE2A7FF0
:10898000009700230193D20905F12403204619F032
:10899000EFFB00287FF443AF297F01F00F0100298E
:1089A00054D0062952D0022900F0A780012958D1BD
:1089B0006B7F0C2B7FF4DAAE2A7F00970DF1130347
:1089C0000193D20905F124030021204619F0D0FBC0
:1089D000002846D06B7F002B3FF4C8AE63682BB1F4
:1089E0002B7F03F00F03072B7FF4C0AE03209DF80D
:1089F00013900FF067FD054600283FF4B7AE0FF067
:108A00007FFD4FF6FF73EB8005232B71B8F1000F4C
:108A10006FD17F20AB7E2876002E08BFFF2769F339
:108A200041032868AB7629466F760FF07FFD0FF083
:108A30008DFD9BE6AFF3008000CA9A3B000000006A
:108A4000291F04008D49FD1A212104006B7F252B6D
:108A500007D8A27D920602D56268002A4FD0252B46
:108A6000B9D92B7F03F00F03042B7FF47FAE6B7F0C
:108A7000252B3FF67BAEA37DD9077FF577AE1AF0A5
:108A8000F7FC2B7F0278C3F38013B3EBD21F7FF484
:108A90006DAE0830062205F11E0123F0FBFD002813
:108AA0007FF464AE96E7A07D5FFA89F1C0F3C00061
:108AB00017F01AFC07468BE6714A7249724840F279
:108AC000C32321F0F0FC404080F311884FF00300F5
:108AD00002DF74E6FF2F8DF81470C3F3801978D08D
:108AE000237EDB1BB3FA83F35B09002B7FF490AE8C
:108AF00055E71AF083FDC0B28CE76B7FAFE7962095
:108B00001AF0E6FD00201AF0B7FC03200FF0DAFCA3
:108B1000814600283FF42AAE0FF0F2FC4FF6FF73B7
:108B2000A9F80630052389F80430B8F1000F70D198
:108B30007F23002E89F8183014BF3B46FF2389F8A5
:108B4000193099F81A30D9F800006FF3410389F809
:108B50001A3049460FF0EAFC0FF0F8FC1AF088FCD6
:108B60002B7F0646C3F380133278DB0102F07002DC
:108B700043F00303134333700C233846737017F02C
:108B80008FFBE37D9F074FD500284DD033780146FA
:108B9000304643F0400300F8023B062223F08BFDF1
:108BA000062205F11E0106F1080023F084FD30467F
:108BB0001AF0E4FB1AF024FC002852D11AF094FEBB
:108BC000A37D324843F00103A37521461AF0FCFA55
:108BD000C6E605F11E0A05AA5146484617F0A4FC50
:108BE00000283FF4D9AEE37D03F001034B457FF449
:108BF000D3AE5146062204F1080023F04BFD297F35
:108C0000B0FA80F35B0901F00F01002B7FF400AE96
:108C1000C5E61AF0F3FCC3B28BE794F8168004F1B2
:108C2000190BC8F380182FE6A37D3278C3F38013A5
:108C3000304663F3861200F8022B04F11901062274
:108C400023F039FDACE70E4A11490F4840F2914339
:108C500021F029FC404080F311884FF0030002DF2F
:108C60002CE6074A0A49084840F2165321F01BFC3B
:108C7000404080F311884FF0030002DF9EE700BF01
:108C8000605D0500145D05002C5105003D1F0400CA
:108C90001C5D0500000000002DE9F04F8FB0DFF8EB
:108CA000D8800A900DF137010DF136000FF000FB6E
:108CB000324F9DF836A09DF837B00CF0C5FFD8F8BC
:108CC0000040A4FB07542AA3D3E900238146214690
:108CD0002846FDF715FA0A9B0B90D8F80400069376
:108CE000274B0593002622A3D3E90023A0FB07010D
:108CF000CDE90766FDF704FA0B9B20F07F40CDE934
:108D00000360204823F07F47A7FB00010723281AB0
:108D100003FB071164EB01014FF47A720023FDF7A6
:108D2000EFF90096CDE901704B465A4603215046B3
:108D30000CF060FE30F0020416D1134A13480023F1
:108D40001FF0DCFD68B19DF837209DF836000094D7
:108D5000234603210CF0D8FE6FF073000FB0BDE87E
:108D6000F08FD8F80C00F9E76FF08B00F6E700BF42
:108D70008D49FD1A070000005C71002000CA9A3B73
:108D8000B95B04008D49FD1A447B0B006C71002017
:108D900038B50F4D04460CF057FFA9680CF056FF8C
:108DA0006968B0FBF4F404440A4807A3D3E900233C
:108DB000A1FB0001FDF7A4F920F07F40844294BF9D
:108DC0000020012038BD00BF8D49FD1A07000000BA
:108DD0005C71002000CA9A3B01481FF0D5BE00BF5D
:108DE000A002002007B528F071FF4FF47A72A0FBB3
:108DF000020302FB0133C00B40EA4340064B4FF431
:108E00000042186000230548CDE9002320F060FCF3
:108E1000002003B05DF804FBB8430020601200207E
:108E200008B5044B187800F0EDF9BDE8084020F0D3
:108E30008ABD00BF56760020044B1A78824202D0C9
:108E40001870FFF7EDBF0020704700BF5676002076
:108E500008B528F03BFF4FF47A72A0FB020302FB37
:108E60000133C00B40EA4340034B1860BDE80840A3
:108E70000020FFF7E1BF00BFB843002008B528F08D
:108E800025FF4FF47A72A0FB020302FB0133C00BF3
:108E900040EA4340064B1B68C01A47F230539842E1
:108EA00004DDBDE808400120FFF7C6BF08BD00BFD4
:108EB000B843002030B5184C8DB00022002303A920
:108EC00020461FF0ADFB08B10DB030BD059DDDE9BA
:108ED000030100F059F8B5FA85F56D09FF238DF807
:108EE000183007908DF8205028F0F0FE4FF47A7279
:108EF000A0FB020302FB0131C00B40EA4140C90B59
:108F00008DE8030006ABCDE90A010FCB00F086F92E
:108F100020F019FDD1E700BF3C1400201FB583F0FD
:108F20000103CDE9011203930022002301A90448A3
:108F30001FF020FB03481FF027FE05B05DF804FB7F
:108F40003C140020BC43002010B51FF0E9F8044693
:108F500078B10A490A4828F0E0FCA36809491B686F
:108F600020469847A3689B6833B120469847002065
:108F700010BD6FF01500FBE71846F9E7B58E02004B
:108F8000BC4300201D8F02000C2303FB0011024B89
:108F900053F82100704700BF6C2B05002DE9F0410C
:108FA0000D4616461FF0BCF8094B0C2101FB05F2DB
:108FB0009F189E54786040B183689B683946083199
:108FC0001BB1BDE8F041034A1847BDE8F08100BF7E
:108FD000B0020020F798040008B5002211460548A9
:108FE000FFF7DCFF012204481146FFF7D7FF0020FE
:108FF00008BD00BF006205000D6205002DE9F041CB
:10900000134B144EA3EB060807460D4606EBC106AC
:10901000C8F3C708A84504DC0024384629F003F843
:1090200013E032683B689A420AD1736838461B687D
:10903000984701280446EFD0022804D00028ECD13C
:1090400001350836E6E73D7100242046BDE8F08191
:10905000286C0500D86B05000D4B0E4AD21A70B46F
:10906000C2F3C7020024A24203DC6FF0150070BCFB
:1090700070471E680568AE4206D15D688D4203D117
:10908000E1B270BCFFF7BABF01340833EBE700BFB1
:10909000D86B0500286C05002DE9F041466807698A
:1090A000054630681FF03CF83860002845D096F837
:1090B00005E031794EF40072D0F810C0D0F8088085
:1090C000012303FA01F4DCF800301EF0010F14BF95
:1090D0002343A343CCF80030D8F80030984778BB3E
:1090E00003F090FD184803F0CFFC044610BB17496D
:1090F000174828F048FC174803F070FC7B795BB9EF
:1091000001233B710022002311481FF0A5FDAB682D
:109110001B680BB128469847F18859B140F2E730F7
:109120004FF47A72002300EBC1300021FCF7E8FF16
:1091300020F0A2F82046BDE8F0816FF01504F9E7B1
:109140006FF00404F6E700BFC80200205991020046
:10915000F81600201B62050030B58BB0084C204685
:109160001EF0DEFF0569074A23462821684604F001
:109170008BFB0122291D684603F0F6FB0BB030BDC6
:10918000256205002F62050008B54FF4F012002398
:1091900002481FF095FD00EAE07008BDF8160020B7
:1091A0002DE9F3410C461646134901AA1F4621F04A
:1091B00094FFD8B1DDF80480B8F1000F16D1012C6E
:1091C00017D10E4D2246291D3846B047002806DB30
:1091D0006C712C790A482CB120F0CBFB404602B0D0
:1091E000BDE8F08120F0D7FB2046F8E76FF00100E2
:1091F000F5E76FF01500F2E725620500CC4300208B
:10920000EC22050010B504460C2028F013FF024A9A
:109210000260047210BD00BF6C2C050084B070B5F4
:1092200004AC84E80F00202028F004FF0446084B1B
:1092300044F8083B04AD06460FCD0FC495E8030083
:1092400084E803003046BDE8704004B0704700BFBA
:10925000702C05000268034B9A420CBF08300020B6
:10926000704700BF702C05007FB56C4684E80F0086
:10927000182028F0DFFE0546054B45F8083B06465A
:1092800094E80F0085E80F00304604B070BD00BFC1
:10929000742C05000268034B9A420CBF0830002072
:1092A000704700BF742C050010B504460C2028F050
:1092B000C1FE024A0260047210BD00BF782C050096
:1092C00082B038B504A981E80C00054611481EF0AB
:1092D00027FF0446A0B16B68012B0CD0022B05D0F0
:1092E000A3B9BDE8384002B020F07BBB20F080FB82
:1092F00000282046F5DCBDE8384002B020F06ABB0B
:109300006FF00400BDE8384002B070476FF0850090
:10931000F8E700BF2562050082B010B502A981E818
:109320000C0004460A481EF0FBFE58B16368022B8D
:1093300006D120F05DFB0028CCBF0020012060603A
:10934000002001E06FF00400BDE8104002B070475B
:1093500025620500014B1878704700BF5776002042
:10936000094A52F82030013342F82030074A0123DD
:10937000834010780343DBB21370054A5078537072
:10938000181A18BF01207047D443002057760020D8
:10939000851100200D4A52F82030002B12DD013BD0
:1093A00042F820300A4A2BB901238340107820EA82
:1093B00003001070074B107859785870401A18BF86
:1093C000012070476FF01500704700BFD4430020A4
:1093D00057760020851100200449054B09785A78FA
:1093E00008435870801A18BF012070475776002034
:1093F00085110020044A054B50781B785370181AC9
:1094000018BF0120704700BF85110020577600204B
:10941000A0F1E003072B03D82030C0B2FFF7A0BFB4
:10942000074B002213F8011B21B10132062AF9D1A2
:109430000020704703F8010C0028F6D0F8E700BFC1
:1094400088110020A0F1E002072A10B4034604D8D6
:10945000203010BCC0B2FFF79DBF064A0620002195
:1094600012F8014BA34208BF02F8011C0138F7D1E2
:1094700010BC70478811002002480822002123F008
:1094800025B900BF8611002010B50849002301EB63
:109490004302B2F8014024B10133062BF7D100207A
:1094A00010BDA2F801000028F6D0F8E778110020DE
:1094B00030B50023074C194604EB43020133B2F8E0
:1094C0000150854204BF51709170062BF4D10020E9
:1094D00030BD00BF7811002002480C22002123F08B
:1094E000F5B800BF791100200048704785110020B1
:1094F00000487047781100202DE9F0410B4E337879
:1095000083B10B4CDFF82C80002542F20F77204608
:109510004146013528F037FA0A2D44F8207C04F141
:109520005804F4D100203070BDE8F0818E11002085
:1095300048170020299B040010B5064A0023114655
:1095400052F8044B14B941F8230010BD0133282B05
:10955000F6D1FAE7F4430020F0B5C169037E8A7CB6
:1095600093B00AB1032B2ED0023B0022012BD0E98D
:109570000467CDE9032205680692059225D84B6859
:10958000039343680493CDE90867079506AB0FCBB7
:109590000AAC84E80F00CDE90C670B9594E80F0046
:1095A0000EAD85E80F0003981EF0BAFD58B1836830
:1095B0009C6844B112AB13E903008DE8030003A8D3
:1095C00095E80C00A04713B0F0BD8B680393836847
:1095D0000493024BC3E902671D60D4E7000000203A
:1095E0002DE9F843037E002B66D1394C2368834272
:1095F00062D1C3695A7C032A25D8DFE802F0020D44
:109600001D5F04291FD8DFE801F01C031E051C00A4
:10961000022217E0032215E0042914D801A252F80F
:1096200021F000BF43960200479602001196020007
:1096300015960200439602000329EBD011F0FB0FB0
:1096400001D101220276027EB2B3596900290DDDF3
:10965000456D6A1C0AD01833002253F8046BB542DA
:1096600004D001329142F8D1012303760023236014
:10967000FFF772FFD4F80080B8F1000F1CD1154F2E
:10968000DFF85490282657F8045BADB1236847F8FB
:10969000048C23B14FF4A47000211FF0EDFD284687
:1096A000FFF7D8FD10B9284600F004FD49462846CA
:1096B000FFF7D2FC013EE6D1BDE8F8830129A7D02F
:1096C00002D80029BDD0BEE703390129B9D9BAE7CC
:1096D00094440020F4430020D42C050082B02DE9EE
:1096E000F04708A9054681E80C0000681EF018FD47
:1096F0002F490C6884B9D5E90189DDE90AEC099A9A
:109700002C4E582742F20F7A07FB04F5AB5953450C
:1097100007D001340A2CF7D1BDE8F047002002B091
:109720007047476872517019002303764FF0FF337A
:1097300043653B7C0860C0E90189C0E904EC1E492F
:10974000C76113B90B689A420CD1D1E90231FA68AA
:10975000D31841EBE2729E457CEB020302DA04214E
:10976000FFF73EFF582303FB0464396824690C4467
:1097700028F0ACFA4FF47A72A0FB023002FB010031
:10978000DB0B43EA4043E11A21EAE17140F2E730A2
:109790004FF47A72002300EBC1304914FCF7B0FC9F
:1097A000203502460B4670191FF056FAB4E700BF89
:1097B0009444002028170020000000202DE9F047E5
:1097C0000546FFF747FD002869D02846FFF742FD10
:1097D000494ED0F804800446002742F20F794FF03A
:1097E000020A336898450CD04B450AD0F3699B7C3C
:1097F0003BB1337E032B04D186F818A03046FFF727
:10980000ABFE01370A2F06F15806EAD13B4F386804
:1098100010B90020BDE8F087227A63681AB1426D62
:10982000013208BF436502689A42F2D0C3691A68E0
:10983000D0E90431D31841EBE272D4E90461B342B8
:1098400072EB010302DA0321FFF7CAFE267A66B142
:109850002846FFF771FE237A3868002B14BF0121D8
:109860000221FFF7BDFE0220D4E7D4F80490DFF810
:109870009080B24658F8040B70B1FFF7EBFC30B1A2
:109880004368994503D1037A002B18BF06460AF1B5
:10989000010ABAF1280FEDD1002ED9D1B9E7284637
:1098A00000F008FC0028B4D0284600F003FC837ABE
:1098B0009BB14368E03B072B02D80378072B0CD001
:1098C000104BD0E90412D3E902648E429441BEBF2A
:1098D000C3E902124FF000441C60084B1B68002BC8
:1098E00097D04368E03B072B93D80378072B90D1A0
:1098F0002846FFF721FEB6E72817002094440020F1
:10990000F44300200000002082B02DE9F0412B4EEE
:1099100006A981E80C000024582202FB04F08159BA
:109920008B4239D135182030304428F03AF8EB69B1
:109930001A68D5E90431D31841EBE27208998B42D9
:10994000099B72EB0303804603DA03212846FFF7E5
:1099500047FE582707FB046700212846FFF740FE13
:10996000FB699B7C53B13B7E032B07D1284620F03B
:10997000ECF801233B762846FFF7EEFD284620F061
:10998000E4F818F1770F4FF058030DD103FB04648E
:10999000012384F8503002E001340A2CBDD1BDE827
:1099A000F041002002B070475C43331942F20F725D
:1099B000325100221A7683F85020F0E72817002051
:1099C00043685A78024B43F822000020704700BFDA
:1099D000984400202DE9F84F00F06CFB08B1837A21
:1099E0007BBB0020BDE8F88F232BFAD9A2F1E0035E
:1099F000072B02D8FBB2072BF3D090F808A034460F
:109A00004FF000095FFA82FBB378994503DB2B69BD
:109A100000221A70E5E7A388BB4203D009F10109CF
:109A20000C34F1E7A3685B45F8D194F80C80FFF79C
:109A300091FC237B4AEA000008EA00084345EDD187
:109A4000CFE70B4B1D68002DCBD02B691B78002B6B
:109A5000C7D0078842686E68131F072FDBB2C3D1D7
:109A6000192BC1D8037A327813430372B9E700BFC8
:109A70009844002038B50C4605461549206822F068
:109A8000ECFD10B92872012006E01249206822F08E
:109A9000E4FD10B90120287238BD0F49206822F07A
:109AA000DCFD10B902232B72EDE70C49206822F08F
:109AB000D4FD10B963686B60E5E70949206822F0BE
:109AC000CCFD10B963682B60DDE70020E4E700BF40
:109AD000F7620500FF6205000963050011630500D8
:109AE0001E6305002DE9F843D0F804800769D8F813
:109AF0000830DFF848903B6100247B81BC8108F18D
:109B00000C06D8F80830A34211D931463846FFF781
:109B1000B1FF651C70B93068494622F09EFD48B916
:109B2000D8F808303C61ADB27D815D1BBD8100205D
:109B3000BDE8F8832C460C36E3E700BF2C63050034
:109B40002DE9F04395B0142200210FA822F0BEFDAC
:109B5000DFF8D0804FF47A77002200230FA9404627
:109B60001EF05EFD00284AD10F9E029028F0AEF84C
:109B7000A0FB075C07FB01CCED0B45EA4C459DF8CB
:109B80004C30CDE903654FEADC3C13F0010FCDF812
:109B900014C002AB0FCB06AC84E80F000DF128090E
:109BA00030D0CDE90765CDF824C094E80F0089E8EE
:109BB0000F0010981EF0B4FA50B183689C683CB155
:109BC000DDE90C018DE8030010A899E80C00A0471E
:109BD000139C34F00103BFD0C4F35E044FF400457E
:109BE00040F2E73000214FF47A720023E5FB0401D4
:109BF000FCF786FA02460B460B481FF02DF815B00D
:109C0000BDE8F083CDE90765CDF824C094E80F00E6
:109C100089E80F0010981EF083FA0028D8D08368D6
:109C2000DC68CCE7AC1300201000002010B58AB02F
:109C300001AC84E80E0014220DEB0200002122F09A
:109C400045FD94E8070006AB83E807009DF8303037
:109C50000D9A43EA420309930A480022002305A90A
:109C60001EF088FC041E07DB074827F098FE044618
:109C700028B90548FFF764FF20460AB010BD00244C
:109C8000FAE700BFAC1300201000002008B5FFF772
:109C90002BFC094A127822B1012A07D06FF0850007
:109CA00008BDBDE80840092101F090B9BDE80840B1
:109CB000013000F04DBD00BF8F11002008B5FFF747
:109CC00017FC094A127822B1012A07D06FF08500EB
:109CD00008BDBDE808400D2101F078B9BDE8084095
:109CE000013000F05BBD00BF8F1100200249034826
:109CF000012202F039BE00BF5976002053640500EE
:109D000010B502F07FFF074802F0BEFE044630B9EE
:109D10000548064927F037FE054802F05FFE204659
:109D200010BD00BFA8050020981A0020ED9C02007D
:109D30006764050038B500F00DFBC8B101F010F9FB
:109D400002281BD10F4B1C780F4D2B78A34217D044
:109D5000FFF792FBFFF7C0FBFFF798FFFFF7AEFF9F
:109D600020462C7000F04CF8BDE838401FF0EBBDE9
:109D700001F0F6F8841E18BF0124E5E70124E3E7AB
:109D800038BD00BF597600208F11002070B50C46F9
:109D900015460A4900221E4621F09FF950B1012CB8
:109DA00009D1074922463046A847002802DDFFF7BF
:109DB000C1FF002070BD6FF01500FBE75D6405007A
:109DC0005976002008B5074B1A78824208D01870DF
:109DD0004FF4F012002304481EF072FFFFF7AAFFB1
:109DE000002008BD59760020981A0020034B1878EF
:109DF000B0FA80F04009FFF7E5BF00BF59760020B8
:109E000010B504460C2028F015F9024A02600472CD
:109E100010BD00BF802D050009281FB52AD818B92C
:109E200011B9002004B010BD144C012322688340F6
:109E3000E9B113439A422360F3D08DF800008DF806
:109E4000011027F043FF4FF47A72A0FB020302FBDC
:109E50000131C00B40EA4140C90BCDE9020104AB1E
:109E600013E90F0000F0F4F81FF06DFDD9E722EAC6
:109E70000303DFE76FF01500D4E700BF6C45002057
:109E8000014B196820F094B86C4500202DE9F04F83
:109E90001F464FF42E7315464B430C2202FB05322E
:109EA000394B134482460E4693E807008DB005AC4B
:109EB00084E80700DDE916891EF032F983460028A0
:109EC0005DD0CDE90865CDE90A8905981EF028F92D
:109ED00083685B689C4653B10CAB13E90300DDE972
:109EE00008238DE8030020466146884758BBDBF80D
:109EF00008301B78012B13D0022B27D0002B40D128
:109F0000CDE90A890CAB029713E90300CDE9086596
:109F10008DE803002B463246204620F066F812E01A
:109F2000CDE90A8902970AAA92E80300CDE90865FB
:109F30008DE8030008ABBAF1FF0F0CCBECD0214643
:109F4000504620F0B7F90DB0BDE8F08FCDE90A8991
:109F5000CDE9086502970AAE96E803008DE8030094
:109F600008AD95E80C002146002020F0A3F90297E7
:109F700096E803008DE8030095E80C00CCE701208B
:109F8000E1E76FF08500DEE7882D05002DE9F34D50
:109F9000DDE90AAB104D80460F4614461AB10F4B4F
:109FA0001B6845F82130092655F82710F0B21FF03C
:109FB000FFFF30B9013EF7D26FF0850002B0BDE877
:109FC000F08DCDE900AB23463A4631464046FFF7D7
:109FD0005DFF0028F2DDEDE7704500206C450020B4
:109FE0002DE9F843194C00EB40000E461746984601
:109FF00004EB80040925E8B2FFF742FF40B9013DB8
:10A000006B1CA4F11804F6D16FF08500BDE8F8834D
:10A01000D4F8D8001EF084F80028F0D0D4F8D80086
:10A020001EF07EF870B18368D3F81090B9F1000F7C
:10A03000EAD03A464346314604F1D800C8470028E2
:10A04000E4DDDCE76FF01500E0E700BFC0050020AD
:10A050007FB56C4684E80F00182027F0EBFF05461B
:10A06000054B45F8083B064694E80F0085E80F00CD
:10A07000304604B070BD00BFBC48050084B070B568
:10A0800004AC84E80F00202027F0D4FF0446084BDE
:10A0900044F8083B04AD06460FCD0FC495E8030015
:10A0A00084E803003046BDE8704004B0704700BF4C
:10A0B000C44805000268034B9A420CBF08300020D8
:10A0C000704700BFC448050013B56C4684E8030020
:10A0D000102027F0AFFF0246054942F8081B03464F
:10A0E00094E8030082E80300184602B010BD00BFE8
:10A0F000C848050007B5094B1A78094B8DF80020B0
:10A10000162102FB0133019302AB13E90300FFF7B1
:10A11000DBFF03B05DF804EB1FF015BC5A7600209E
:10A120006376002002490348012202F01DBC00BFF3
:10A130005A7600202F65050070B503788AB0044672
:10A140000E4607AD032B20D8DFE803F002191B1DD4
:10A150001149284622F070FA63780493A378039398
:10A16000E378029323790193637900930B4AA379EF
:10A1700005951E21304620F0A3F90AB070BD0849AC
:10A18000E7E70849E5E70849E3E7084A0A212846DE
:10A1900020F096F9E0E700BF426505006B65050019
:10A1A00049650500506505005A65050064650500B0
:10A1B0002DE9F0438BB00D46164626496A46044603
:10A1C000984620F08AFFF8B10098E8B10A2201A968
:10A1D00022F0B9F9019B1F7807BB162D1ED1C4B21E
:10A1E000042C1BD8DFF870906C432A4609EB04015D
:10A1F0004046B047002813DD04F10F0002A948448F
:10A20000FFF79AFF00200BE014496A46204620F031
:10A2100064FF78B1009B6BB9012D04D06FF015007D
:10A220000BB0BDE8F0830E492A464046B04700EA2D
:10A23000E070F5E70B496A46204620F04EFF002803
:10A24000EED0009B002BDDD1072DE7D106492A4631
:10A25000EBE700BF8E6505006376002033650500DF
:10A260005A760020B26505005C76002010B590B0EB
:10A27000044623F030FB6946FFF75EFF08A920463D
:10A2800006F0E8F99DF82130012B13D10A481EF0A1
:10A290007BFC204623F01FFB084B09491B78162244
:10A2A00002FB03110F31072222F0F4F910B905481F
:10A2B0001EF06AFC10B010BDF80600205A7600208F
:10A2C00063760020E806002007B50A4B0A481B7891
:10A2D000162202FB03006946002307220F30009379
:10A2E000CDF8033022F0D6F9B0FA80F0400903B07F
:10A2F0005DF804FB5A760020637600202DE9F041DA
:10A3000004468CB00D464FF016080F4F04A928469E
:10A3100014FB08F6FFF710FF06F10F00294607228D
:10A32000384422F0C8F922460849684603F0C4FAC6
:10A330004246B919684602F017FB05481EF024FC96
:10A340000CB0BDE8F08100BF637600209765050082
:10A35000E806002037B50E4B0E4C1B78162202FB88
:10A3600003440F3400250722694620460095CDF8A6
:10A37000035022F08FF948B12146284606F018F91B
:10A3800020B123F0D7F9012003B030BD0020FBE756
:10A390005A76002063760020F0B58DB0FFF794FF69
:10A3A000044610B9FFF7D6FF00B90224204D2878E3
:10A3B00004EB0010112805DC02282DD010280AD04B
:10A3C000002405E0202806D012284FF000040AD00F
:10A3D00020460DB0F0BD05F079F900232B7004463E
:10A3E0000028EDD0F4E705F071F92C700446002840
:10A3F000EED1104F0FCF02AE0FC63B680E4933604F
:10A4000004220094234602A805F02EF904460028F1
:10A41000DED102232B70D3E7064E0FCE07AC0FC45C
:10A4200033682360002304490093042207A8EBE764
:10A430005B760020502A0500E048050030B591B059
:10A44000054623F048FA69460446FFF775FE08A959
:10A45000284606F0FFF89DF82130012B05D1FFF7C3
:10A4600033FF214618B904F031FA11B030BD034B67
:10A470001878FFF743FFFFF78FFFF6E75A760020C3
:10A4800030B591B00D4608A9044606F0E3F89DF8F2
:10A490002130012B0BD1204623F01DFA6946FFF72E
:10A4A0004BFE104B00221A701DB1FFF775FF11B063
:10A4B00030BD0221204623F0BCF9FFF76DFF204696
:10A4C00023F009FA084B09491B78162202FB0311F5
:10A4D0000F31072222F0DEF80028E8D104481EF0F0
:10A4E00053FBE4E75B7600205A7600206376002079
:10A4F000E806002010B5002004F036FB0446C0B981
:10A5000002F080FB0C4802F0BFFA044688B90B4900
:10A510000B4827F038FA0B4802F060FA0A4802F0BC
:10A520005DFA0A4806F020F8094806F005FBFFF737
:10A5300033FF204610BD00BFD006002025A1020039
:10A54000C81A0020A7650500AB650500B00600200D
:10A55000080700202DE9FF41124E134F30781625D1
:10A560004FF00F0815FB008000240722694638448D
:10A570000094CDF8034022F08DF868B1317815FBD6
:10A5800001813944204604F0A1F93078029402A9EF
:10A59000CDF80B40FFF7B2FEFFF7FEFE002004B03F
:10A5A000BDE8F0815A76002063760020042808B5C3
:10A5B00010D80A4B1A7882420AD018704FF4F01261
:10A5C000002307481EF07CFBFFF7E6FEFFF792FD35
:10A5D000002001E06FF0210008BD00BF5A76002086
:10A5E000C81A0020054B187805230130B0FBF3F39F
:10A5F00003EB8303C01AC0B2FFF7D8BF5A7600201E
:10A60000054B187805230430B0FBF3F303EB830309
:10A61000C01AC0B2FFF7CABF5A760020034B0448E5
:10A620001B78162202FB03000F3070475A76002079
:10A630006376002010B5014604460722044822F044
:10A640003AF821460348BDE81040072202F08CB9D1
:10A650005C760020AE6505001FB54C240294044CC6
:10A660000194BDF81840009424F081FC04B010BDA2
:10A67000E465050007B5064B009306490648052327
:10A680004FF400721EF086FA002003B05DF804FB60
:10A690002C4A0500A8770020F81A0020F0B5134EC8
:10A6A000134F89B000220023694630461DF0B8FFE1
:10A6B000054608B109B0F0BD1FF0ACFD0446002806
:10A6C000F8D01822294602A822F000F808230DEB42
:10A6D000030120460397CDF810D0ADF8143007F0F1
:10A6E000EFFE204623F026F8DCE700BF0C14002024
:10A6F000644905002DE9F041134FDFF850808AB01E
:10A7000001AE00220023314638461DF089FF054680
:10A7100010B10AB0BDE8F0811FF07CFD04460028AE
:10A72000F7D01822294604A821F0D0FF0C2304A951
:10A730002046CDE90586ADF81C3007F0C1FE204665
:10A7400022F0F8FFDDE700BFDC130020C849050058
:10A7500037B5054640F6CD42014600230C481DF0B2
:10A7600009FF044678B110F10B0F09D10022002334
:10A77000694607481DF054FF2846FFF7E9FF0446E5
:10A78000204603B030BD0349034827F0DFF8F7E760
:10A790000C14002000080020F81A002030B50546EF
:10A7A00085B040F6CD42014600230D481DF0E2FE83
:10A7B000044678B110F10B0F09D10022002301A942
:10A7C00007481DF02DFF2846FFF7E8FF0446204606
:10A7D00005B030BD0349044827F0B8F8F7E700BFDB
:10A7E000DC130020F0070020F81A002010B5044602
:10A7F0000C2027F01FFC024A0260047210BD00BF4B
:10A80000344A050001481EF0BFB900BF10080020FF
:10A8100037B50F4CA5682C21EB6820469847A0B9A6
:10A820002C212B696A462046984770B9094C009B39
:10A8300022789A4209D0D8B2207000F081FF20B966
:10A840002078FFF7D3FF1FF07EF803B030BD00BFC4
:10A8500004230500D276002013B50B4826F02FFE06
:10A8600070B1FFF7D5FF044638B94FF4F01200235A
:10A870000648CDE900231EF02BFF204602B010BD94
:10A880006FF01204F9E700BF0423050098120020BE
:10A8900030B5064D0FCD87B001AC0FC42B6804490D
:10A8A000236001A805F06EF907B030BD642A0500E9
:10A8B000BDA9020007B50023074900934FF40072B9
:10A8C000052306481EF066F9054805F04DFE03B065
:10A8D0005DF804EBFFF7DCBFA8790020981B00208F
:10A8E0002008002084B010B588B00AAC84E80F00BE
:10A8F0001148214640F6CD4200231DF03BFE0446A0
:10A90000A8B110F10B0F0CD10022002303A90A48B3
:10A910001DF086FE0E9B00930AAB0FCBFFF7E2FF04
:10A920000446204608B0BDE8104004B07047034913
:10A93000034827F00BF8F4E76C14002050080020BF
:10A94000981B002070B503788AB004460E4607AD08
:10A95000032B20D8DFE803F002191B1D11492846FC
:10A9600021F06AFE63780493A3780393E37802935B
:10A9700023790193637900930B4AA37905951E21EE
:10A9800030461FF09DFD0AB070BD0849E7E7084951
:10A99000E5E70849E3E7084A0A2128461FF090FD49
:10A9A000E0E700BF426505006B65050049650500ED
:10A9B000506505005A6505006465050070B588B0EE
:10A9C0001646694605461C46FFF7BCFF012E04D813
:10A9D00003492A46204622F042FB08B070BD00BF62
:10A9E000F5AD020030B50C4D89B002AC0022002359
:10A9F000214628461DF014FE08B109B030BD08AB51
:10AA000013E903008DE8030094E80F00FEF706FC4D
:10AA10001EF099FFEAE700BF7C13002070B5104ECE
:10AA2000104C8AB00022002305A930461DF0F8FD25
:10AA300008B10AB070BD9DF814307C225343E5186C
:10AA4000E35C022BEED1CDE9010001230093B5F8C0
:10AA50005810686813230DF1150224F024FDE1E776
:10AA60006C14002058460020034B5B68834214BFDF
:10AA70006FF01500002070475846002008B5FFF71A
:10AA8000F3FF031EA3BF03487C2202FB0300002048
:10AA900008BD00BF5846002010B5022188B004460A
:10AAA00022F0C7FE48B92046FFF7E8FF28B1038D22
:10AAB0002BB16946204605F0CDFD08B010BD094A0E
:10AAC0008260094AC260012202824FF6FF72C2828E
:10AAD000037600F10801406807F05CFE0028E8D02A
:10AAE000EBE700BF6E660500EDAA02002DE9F0411C
:10AAF000134686B007460E4639B91822184621F08B
:10AB0000E5FD304606B0BDE8F081FFF7B7FF04462B
:10AB10000028F7D0134BD0F808C001AA03F11008A1
:10AB2000964618685968154603C5083343452A46B2
:10AB3000F7D11B782B707146604621F0AAFE0546BE
:10AB400008B10120DEE7084BE360338AA0600133DF
:10AB500023820323237604F10801384607F01AFE06
:10AB60002846CFE7782A050031AC02002DE9F047EE
:10AB700086B007461446FFF781FF002852D024B95B
:10AB80000C81204606B0BDE8F087631E00F15A0232
:10AB90000F3413F8015F12F8011B6940D173197863
:10ABA00002F8011CA342F4D1DFF87C90DFF87CA00E
:10ABB00000F16A0400264FF0010800252378EB40DD
:10ABC000DB0727D514F8101C08FA05F3194238469C
:10ABD00014BF01210021FFF747FFAA198DF80000DB
:10ABE00001928DF8081027F071F84FF47A72A0FBEB
:10ABF000023002FB0101DB0B43EA4143C90BCDE903
:10AC0000043100220023694648461DF0B3FC50463B
:10AC10001DF0BAFF0135082DD0D10836802E04F181
:10AC20000104CAD10120ADE77C13002040080020B8
:10AC30002DE9F04106468AB00D46002962D0C96868
:10AC4000002961D0FFF71AFF044600283AD02F4BA5
:10AC5000D1F800C06A4603F1100896461868596892
:10AC6000174603C7083343453A46F7D11B783B7074
:10AC70007146604621F00DFE38BB2B8AA06002337E
:10AC800023820323237604F140032363E38AA3850D
:10AC9000284624F083F91E4B236201232085A386D6
:10ACA0003046FFF7EBFE20B100F12001304607F0FF
:10ACB00081FFB4F8580018B1208D003818BF01206A
:10ACC00080F001000AB0BDE8F081EB681F68114B0D
:10ACD00005AA03F1100E944618685968164603C673
:10ACE000083373453246F7D11B78337061463846D6
:10ACF00021F0CFFD0028DCD1284624F04FF9A4F83C
:10AD00005800D6E70846DDE70846DBE7892A050054
:10AD10006DAB02009A2A05002DE9F04F044687B07A
:10AD200000284BD1274D2B78002B47D0686810B1F5
:10AD300022F000FD6C60244FDFF890A0DFF890B0A7
:10AD400000242C70B846A146002698F80030F34045
:10AD5000DB071CD533198DF8009001938DF808900E
:10AD600026F0B4FF4FF47A72A0FB020302FB01311C
:10AD7000C00B40EA4140C90BCDE904010022002389
:10AD8000694650461DF0F6FB58461DF0FDFE0136A3
:10AD9000082EDAD10834802C08F10108D4D1002221
:10ADA000134607F8013B0132102AFB73F9D12B85BA
:10ADB000A5F85830002007B0BDE8F08F6FF01500FF
:10ADC000F9E700BF58460020B24600207C1300205F
:10ADD0004008002038B5064D2C7834B92046FFF7DE
:10ADE0009BFF01232B70204638BD6FF00B00FBE763
:10ADF000584600202DE9F0410378063B012BA4B012
:10AE000005460E4603D9012024B0BDE8F081447800
:10AE100014F00F04F7D16B789C42F4DA69681022C1
:10AE2000214401A821F063FD70B3354B06AA03F15C
:10AE300010079646186859689446ACE80300083332
:10AE4000BB426246F6D11B788CF80030714601A8EF
:10AE500021F01FFDD0B1252210A901A803F006F8AA
:10AE60000BAA274B9646186859689446ACE803002D
:10AE70000833BB426246F6D11B788CF8003025229D
:10AE80001AA9704602F0F2FF1034C4E73046FFF70B
:10AE9000D1FB04F0F7FE07460028F5D1FFF79AFF33
:10AEA0003146C5B2384605F083FBDFF858C0164C72
:10AEB0007C235D430CEB05081AAFC8F8040050B1C1
:10AEC000FFF7EAFDA06C1A903946D8F8040022F08A
:10AED00004FD002098E7E06C216D10AB543403C3EF
:10AEE00094E80F0087E80F002B1D634410AA394631
:10AEF000304605F0DDFB0028EBD0FFF7C9FCE8E7A2
:10AF0000782A050058460020642A050008B5FFF796
:10AF1000ABFD002805DB7C235843024B02221A5468
:10AF2000002008BD58460020024B187002481DF052
:10AF30002BBE00BF9F1100206008002008B5044808
:10AF400001F020FA002818BF6FF0150008BD00BFFF
:10AF500029AF0200014B1878704700BF9F110020F5
:10AF6000084B1B78033B082B08D8DFE803F00905E2
:10AF700009070707070705000020704701207047F1
:10AF8000022070479F11002010B50948094C1DF0A0
:10AF9000C7F8206048B1084B08494C2219F0A4F9C1
:10AFA000206825F00AFC002010BD6FF01500FBE7BB
:10AFB0007F660500D44600203C4A050085660500F2
:10AFC00001481DF075BC00BFB414002038B504461C
:10AFD0000D46FFF7BFFF0B280BD8DFE800F01E1E61
:10AFE0000A0A1E060A0A0A0A0A1EBDE8384001F0CB
:10AFF00093B94FF47672002309481DF07FFC09488D
:10B000002146006800232A4625F0E1FB044610B1E2
:10B0100003481DF04DFC204638BD6FF01204FAE7DE
:10B02000B4140020D44600200148FDF78DBF00BFB6
:10B03000D166050030B50A4C0A44914200D130BDBA
:10B0400011F8013B58400309E35C83EA0013DDB2C9
:10B05000C3F30313E05C80EA0510C0B2EDE700BF64
:10B06000D76605000B6801330B60014B1B6818475E
:10B070007008002007B50B460021024601910348E5
:10B0800001A900F0F9F803B05DF804FB65B0020017
:10B0900030B585B0CDE901010446002501A9054878
:10B0A000039500F0E9F8DDE902309842B8BF255475
:10B0B00005B030BD81A404002DE9F84FB0F8189018
:10B0C00019F00808044693460DD001290CBF49F039
:10B0D000100949F02009A0F818908BF31188BFF3EC
:10B0E0006F8FBDE8F88F09F00709022907D12046C4
:10B0F0001FF00DFA0028F0D00128238B4ED167698C
:10B10000218B002F15DA256821F00701C4E900889A
:10B1100041F0010121830026218B01F0070ACA4575
:10B1200002D0A368002B5AD10DB9002E71D0002394
:10B1300056E001F007035A1F012A1ED821F007012B
:10B14000062B256889B2C4E900880AD13DB1638B1A
:10B150002A46126801339BB2002AFAD1638341F078
:10B160000201218320461FF0D2F906460028D3D0E1
:10B17000238B43F020032383CDE7042B0CD121F054
:10B18000070189B2218320461FF0C1F90546002836
:10B19000C1D041F0200121830025BCE7032809D15B
:10B1A000226923F00703166843F006032383002572
:10B1B0002F46B1E7042806D1226923F00703566819
:10B1C00043F00403F2E7052806D1226923F00703C0
:10B1D000966843F00503E9E700252E46E8E70123DA
:10B1E00041F0080121838BF31188BFF36F8FFBB906
:10B1F00085BB16B11F492046B0474FF02003EFF33F
:10B20000118B83F31288BFF36F8F238B23F0080316
:10B210002383238BDA0625D523F010032383012112
:10B22000B4F8189009F0070900297FF45EAF54E7DD
:10B23000A1680029DCD0D1F80090D1F804B03B46D9
:10B2400052462046D847B9F1000FD1D04946D9F827
:10B250000090F2E729463B46524620462D681FF0F3
:10B2600072F9C5E713F020011EBF23F020032383EA
:10B270000221D5E773A504002DE9F04F8FB01D46DC
:10B28000531E01908A4602934FF00009029B5878A2
:10B29000252803F1010421D14FF0000C18464FF08E
:10B2A000FF3702306146CDF80CC03C460A260278D2
:10B2B0000290392A00F1010058D81F2A18D8002A14
:10B2C00000F0F681019B514625209847029B51468C
:10B2D0001878019B984709F10209D7E7002800F088
:10B2E000E781019B5146984709F101090294CDE796
:10B2F000A2F12003192BE5D80FF2040E5EF823F01B
:10B3000069B30200C5B20200C5B2020069B302000F
:10B31000C5B20200EDB30200C5B20200C5B2020020
:10B32000C5B20200C5B202002FB4020069B3020028
:10B33000C5B2020043B40200FBB30200C5B2020072
:10B3400007B4020023B4020023B4020023B40200B5
:10B3500023B4020023B4020023B4020023B4020089
:10B3600023B4020023B402009446A0E7582A00F058
:10B370001B81A2F163035FFA83FEBEF1170FA1D810
:10B38000172B9FD80FF2040E5EF823F00BB60200C5
:10B3900069B40200C5B20200C5B20200C5B2020023
:10B3A00049B4020069B40200C5B20200C5B202008D
:10B3B00049B40200C5B20200C5B20200C5B2020023
:10B3C00053B50200C5B20200C5B20200EBB50200DF
:10B3D000C5B2020069B40200C5B20200C5B20200E3
:10B3E00053B50200C5B2020049B40200019B5146A8
:10B3F0002520984709F1010948E7039B03F0FE0364
:10B400000393002753E7002C0BDA002F0BDA039B82
:10B41000002B00F0498124EAE47406FB0424303C4C
:10B4200045E7002FF7DB06FB0727303F3FE7002FFC
:10B4300055F8043B01DB1F4639E71C1EBFF637AF4A
:10B4400064420223039332E7682A03D1682906D1B4
:10B4500048212CE76C2A02D16C2900F027810029B1
:10B460007FF430AF114622E77A2907D1752A05F11A
:10B4700004062D6862D14FF000080DE06C29F5D06C
:10B480004C29F3D1EB1D23F007031E46752AF6E87D
:10B49000020107D1D3E90058BCF1200F51D1864BEE
:10B4A000013C09E005468846B8F1000FF4DA6D4228
:10B4B000824B68EB4808013C00930DAB05934FF0BD
:10B4C000000B284641460A220023CDF810B0FAF7B7
:10B4D00017FE059BCDF81C80303203F80129284661
:10B4E000CDE90535414600230A22FAF709FE069BFD
:10B4F0000A2B079B73F100030BF1FF3B05468846BF
:10B50000DFD2049B049AC3F1010B0EAB9D18002FF0
:10B51000A5F1040504DA039B13F0010F18BF2746B9
:10B52000039BA7EB0B08B8F1000FD4BFA4EB0B04EF
:10B53000E41B9B0700F18180274677E04FEAE5781E
:10B54000B2E7BCF12B0F0ABF5D4B5E4B04F1FF3439
:10B55000B2E7702A28D12E46002356F8041B002992
:10B560005CD059480090023C02F06002A2F1390818
:10B570000DF1340E002501F00F02092A88BF424464
:10B5800030320EF8012910294FEA111242EA0372F3
:10B590004FEA131073F1000305F1FF3C21D20EAB0B
:10B5A000C5F1010B1D44B2E76C2904D12E460023DE
:10B5B00056F8041B08E04C29F8D1073525F007059B
:10B5C0002E466B6856F8081BBCF1230F06D13F4D81
:10B5D0003D4812F0200F08BF2846C3E739480090C5
:10B5E000C2E7654611460346C5E72E4656F8045B9A
:10B5F000284621F02BF8002F834602DBB842A8BF73
:10B60000BB46304B009300278AE72E464FF0010BD4
:10B6100056F8043B8DF8203008ADF2E72C4D4FF082
:10B62000050BEEE7019B514620209847013FF9D5D5
:10B6300024EAE473013C9944E41A009BA9EB030952
:10B6400004E000935146019B9847009B09EB0307D8
:10B6500013F8010B0028F4D1C146B9F1010913D543
:10B6600028EAE878D946B9F1010912D5BBF1000FF3
:10B67000A8BFD8442546013D11D5002CA8BFA04441
:10B6800008EB0709354601E6019B514630209847F3
:10B69000E3E715F8010B019B51469847E3E7019B4F
:10B6A000514620209847E6E70123CBE64C21FEE5F2
:10B6B00048460FB0BDE8F08FE9660500E766050073
:10B6C000EB66050021670500F0660500ED660500E4
:10B6D000F366050008B54FF02002EFF3118382F303
:10B6E0001288BFF36F8F02F017F903481EF0DBFEDC
:10B6F00001F0D0FDFCE700BFF96605001FB5072487
:10B700000294044C0194BDF81840009423F02FFCDF
:10B7100004B010BDA011002010B5084C86B02478EC
:10B720008DF81740012402940DF117040194BDF81F
:10B730002040009423F01BFC06B010BDA711002090
:10B7400000B589B064288DF8070019D80E4B18226F
:10B750001870002102A820F0B9FF0C4B03930DF1E3
:10B760000703049302A901230020ADF8143006F06A
:10B77000A7FE10F1800F08BF002009B05DF804FBA0
:10B780006FF01500F9E700BFA7110020F04A05008F
:10B790002DE9F7430F4606460821C06ADFF85090AE
:10B7A0001FF01AFA3C68241A80463C6004EA090536
:10B7B000AC4203D8002003B0BDE8F08308236A46FA
:10B7C000214630461FF07DF90028F4D16946304605
:10B7D0001FF00CFA40B1BDF80230BDF804203C6007
:10B7E00005EA090513441D44A4EB0804E0E700BF83
:10B7F0000000FFFF2DE9F04F044689B00D4600F12F
:10B800001407384625F035FF28461CF089FCA06255
:10B81000002800F01F818368DB689847E06228B940
:10B820006FF01505284609B0BDE8F08FA06A83685F
:10B83000DB6898470368013B1F2BF1D8A06A216899
:10B8400005AA25F0AEF90028EAD1A589002DE7D098
:10B85000069BB5FBF3F203FB1255002DE0D1E38903
:10B86000012BDDD9E36A009593F804804FF0FF3394
:10B870004FF0FF3238461CF02DFFE06A08211FF020
:10B88000ABF9A9460646E3891FFA85FA534545D820
:10B89000E3894B4500F0D38053450BD10099082331
:10B8A0004246891B20461FF044F918B9E0896946D1
:10B8B0001FF087F969462046FFF76AFF0546002812
:10B8C00040F0BF80009BDFF8E491636003EA090366
:10B8D000A360D4E9011399420ED3082301AA20469C
:10B8E0001FF0EFF8C0B901AB13F8012B904540F001
:10B8F000C18001300828F7D16368E0891B0C1B0464
:10B90000694600931FF05DF9A389009942462046DD
:10B910001FF00FF9002826DA054692E0A1892B04D2
:10B92000891B13FA81F142460823204600911FF03B
:10B9300000F978B1E08969461FF043F909F101097E
:10B9400000990823424620461FFA89F91FF0F1F8B2
:10B9500000289DD0013596E7BAF1000F00F0A280D3
:10B960006FF01C056DE045D06368334400934FF6DB
:10B97000FF780099A3898AB29B1B9A4215D361680C
:10B9800020461FF0FBF80028C6D16368474AA1890A
:10B9900013400B44A3EB460363601340A3602046AF
:10B9A0001FF019FA002840D0B6E7082303AA204662
:10B9B0001FF087F80028AFD103A920461FF016F921
:10B9C00038B1BDF80C30434503D1BDF81030002B21
:10B9D00043D0009B33440093CBE75B1A424620469A
:10B9E0001FF0A7F8002897DB08D0E26AA368126866
:10B9F0001344A360D4E901318B42EED86168A38976
:10BA000001EB46029A42CDD1DFF8A080A36801EA9B
:10BA100008029342C6D020461FF0B0F800287FF4F9
:10BA20007BAF636803EA0803A360A089A388A0EB47
:10BA30004606B34205D120461FF0B8F96CE76FF017
:10BA40002C0538461CF0BEFE002D7FF4EBAE012322
:10BA50002374E7E66FF00505E4E66368E0891B0CF4
:10BA60001B04694600931FF0ACF8009920461FF0B4
:10BA700085F897E701A920461FF0B8F8D4F804B07C
:10BA800080B1009ABDF808A0BDF80610E06A02EA8D
:10BA90000902A26051441FF09FF802445A45A26077
:10BAA0003FF45AAFABEB0603636012E70000FFFF01
:10BAB0002DE9F04F1E46037C89B004468946904626
:10BAC000002B00F0B280C26A082110461FF084F8F3
:10BAD0003146824610461FF07FF8A389A3EB8A0304
