:020000022000DC
:10600000B0590020CDA70200434D0400A1A7020013
:10601000A1A70200A1A70200A1A7020000000000A2
:1060200000000000000000000000000015A50200B4
:10603000A1A7020000000000CDA40200A1A7020059
:1060400091A502002DA4030091A5020091A50200D4
:1060500091A5020091A5020091A5020091A5020060
:1060600091A5020091A5020091A5020091A5020050
:1060700091A5020091A5020091A5020091A5020040
:1060800091A5020091A5020091A5020091A5020030
:1060900091A5020091A5020091A5020091A5020020
:1060A00091A5020091A5020091A5020091A5020010
:1060B00091A5020091A5020091A5020091A5020000
:1060C00091A5020091A5020091A5020091A50200F0
:1060D00091A5020091A5020091A5020091A50200E0
:1060E00091A5020091A5020091A5020091A50200D0
:1060F00091A5020091A5020091A5020091A50200C0
:1061000053B94AB9002908BF00281CBF4FF0FF311E
:106110004FF0FF3000F00CB8ADF1080C6DE904CE83
:1061200000F008F8DDF804E0DDE9022304B0704770
:10613000704700BF2DE9F04F07468C460846099E80
:1061400015463C461946002B40F0C6808242B2FA02
:1061500082F746D94FB1C7F1200E24FA0EFE00FA9D
:1061600007F3BD404EEA030CBC404FEA15481FFA46
:1061700085FEBCFBF8F9220C08FB19C309FB0EFADB
:1061800042EA03439A4528D9EB1809F1FF3004D2BB
:106190009A4502D9A9F102002B44A3EB0A03A4B249
:1061A000B3FBF8F208FB123302FB0EFE44EA034491
:1061B000A64514D92C1902F1FF3303D2A64501D903
:1061C000931E2C44A4EB0E0443EA00401EB1FC4095
:1061D000002334607360BDE8F08F4846DDE7134666
:1061E000F0E702B9FFDE87BB831A01214FEA154EA3
:1061F000AAB2B3FBFEFC200C0EFB1C330CFB02F816
:1062000040EA0343984563D9EB180CF1FF3004D200
:10621000984502D9ACF102002B44A3EB0803A4B2C9
:10622000B3FBFEFC0EFB1C330CFB02F244EA0344FE
:10623000A2424FD92C190CF1FF3304D2A24202D949
:10624000ACF102032C44A41ABEE7C7F1200C20FADB
:106250000CF800FA07F324FA0CFCBD404CEA0302E8
:106260004FEA154EABB2B8FBFEFC110C0EFB1C80C6
:106270000CFB03F941EA0040814504FA07F423D9F5
:1062800028180CF1FF3104D2814502D9ACF102018A
:106290002844A0EB090092B2B0FBFEFC0EFB1C00F0
:1062A0000CFB03F842EA004398450FD9EB180CF1B8
:1062B000FF3204D2984502D9ACF102022B44A3EB81
:1062C000080342EA014191E76146E2E76246F6E7E8
:1062D0006046A2E76346B6E7834205D90EB1C6E938
:1062E00000700021084676E7B3FA83F181B9834252
:1062F00001D3BA420AD8BC1A60EB030301209C46C2
:10630000002E68D0C6E9004C002164E70846F7E794
:10631000C1F1200C8B4022FA0CF41C4302FA01F567
:1063200000FA01F327FA0CF220FA0CFB4FEA1449A9
:106330001343BBFBF9F81FFA84FE09FB18BB1A0CC8
:1063400008FB0EFA42EA0B42924507FA01F73ED9E2
:10635000A21808F1FF3004D2924502D9A8F1020038
:106360002244A2EB0A029BB2B2FBF9F809FB182205
:1063700008FB0EFE43EA024296452AD9A21808F10C
:10638000FF3304D2964502D9A8F10203224443EA1E
:106390000040A0FB0593A2EB0E029A42CE4698461F
:1063A00002D306D14F4504D2B9EB050E63EB0408C6
:1063B000013886B1B7EB0E0362EB080707FA0CFC55
:1063C000CB404CEA0303CF40C6E900379CE7404688
:1063D000C7E74346DBE73146FDE60000000000006A
:1063E00073B53F4DD5F85431996811F0010121D1B1
:1063F00001AA40F6034004F0C9FF044600286CD10E
:10640000019B9B681B7893B9BFF35B8F2B4653F8B6
:10641000CC2FBFF35B8F02F00502BFF35B8F53E815
:10642000001F43E800200028F9D1BFF35B8F0198DB
:1064300016F0AEFF01AA002141F2030004F0A6FF0E
:106440000446002849D1019B264899680822013159
:106450001EF036FD019816F09BFF214601AA41F27D
:10646000010004F093FF0446002836D101988368A8
:106470005A7885F86820D9789A7842EA0122A5F8F6
:106480006A201A7985F86920197ADA7942EA0122B4
:10649000A5F86C205A799B7942EA0323A5F86E305F
:1064A00016F076FF214601AA41F2020004F06EFFC9
:1064B000044690B9019B0C489968402201311EF0B6
:1064C000FFFC09481EF0B0FD019816F061FF95F839
:1064D00074305A060AD46FF01204204602B070BD20
:1064E000000000207000002078000020214601AA52
:1064F00042F2030004F04AFF04460028EDD1019B5C
:10650000B9489968082201311EF0DAFC019816F0AA
:106510003FFF214601AA42F2020004F037FF044681
:106520000028DAD1019B9B68B3F80120A5F8FC2074
:1065300091B221B1DA78AD48114622F0B3FC01984E
:1065400016F026FF95F8746016F0200600F0218101
:1065500095F894301B0712D501AA002142F21C00C5
:1065600004F014FF04460028B7D101988368D3F8DB
:106570000120D3F80530C5E9362316F009FF95F858
:10658000D0309E0623D50DF1020168461EF0B5FFFE
:1065900004460028A1D1042142F2240004F09AFE0E
:1065A0000646002800F0FC800421083021F02AFC77
:1065B000BDF800300380BDF80230438022463146EA
:1065C00042F2240004F0E2FE0446002885D195F84A
:1065D000D0305C0610D501AA002142F22A0004F056
:1065E000D5FE044600287FF478AF019883685B7875
:1065F00085F8183116F0CCFE082142F2010004F0B3
:1066000069FE0446002800F0CB800821084421F0F0
:10661000F9FB95F8D01011F0400F024640F202232A
:1066200008BF032388074CBF43F02C0043F00C0045
:106630008B0695F8D13048BF40F0400013F0090FA9
:1066400095F89A3018BF40F4006003F00603CE07B7
:1066500048BF40F01000062B08BF40F4C070002176
:106660001EF02EFE2146002242F2010004F08EFEB2
:10667000044600287FF431AF95F87430B5F8FC106B
:10668000980600F1A280D9B901AA41F2050004F0F0
:106690007DFE044600287FF420AFB5F8FC3063B9D6
:1066A000019B9B685A78997842EA0122A5F8FC2060
:1066B0009A884E48114622F0F5FB019816F068FEC4
:1066C000082140F6014004F005FE0446002867D08A
:1066D0000821084421F096FB95F8D030D9070246EE
:1066E00079D53FA1D1E900011EF0EAFD2146002243
:1066F00040F6014004F04AFE044600287FF4EDAE67
:10670000014601AA4FF6014004F040FE044648BB92
:10671000019816F03DFE214601AA4FF6024004F012
:1067200035FE0446F0B9019B3148996802220131D7
:106730001EF0C6FB019816F02BFE95F8B9305B07EA
:1067400010D501AA21464FF6034004F01FFE48B9B8
:10675000019B28489968012211441EF0B1FB019861
:1067600016F016FE1FF042F9044600287FF4B5AE7D
:1067700006F06EFC044600287FF4AFAEEB79002BE8
:106780003FF4ABAE04211C481EF01EFD05F0BCF822
:10679000A3E6022140F66D4004F09CFD044610B9CA
:1067A0006FF0680499E60221083021F02BFB0123E9
:1067B000037046702146324640F66D4004F0E6FD17
:1067C000044600283FF4C4AE87E600297FF478AF82
:1067D0006FF0040481E609484FF0005184E700BFE0
:1067E0009088000200800020D000002000010020DE
:1067F000B9000020B8000020CC0000201088000262
:106800002DE9F041D0E90B35866A5C193034A64297
:106810008846174618D81C4DA3FB050118A3D3E9D9
:106820000023FFF76DFCA41B20F07F40C8F8000098
:1068300013A3D3E90023A4FB0501FFF761FC20F0BB
:106840007F403860BDE8F0810F4C0DA3D3E90023F1
:10685000A6FB0401FFF754FC05F1300120F07F4056
:10686000C8F8000006A3D3E90023A1FB0401FFF749
:1068700047FC20F07F403860BDE8F081AFF3008036
:106880008D49FD1A0700000000CA9A3B0000000075
:106890002DE9F04FAB4C8FB094F86A20002800F03F
:1068A000398112F0010740F0B78194F82500FF23E9
:1068B00000F0030084F8263013F05CFA94F86A00C4
:1068C00041072DD494F8292094F8353004EB820246
:1068D00004EB8303D2F82C80D3F83890B8F1000F82
:1068E00011D0984841460DF019FE98F800305A062C
:1068F00005D5062109F09CF9002800F0C9819148CE
:1069000049460DF00BFE98F8003013F00E0F40F0E2
:10691000EE80236A9BB10C2738460FB0BDE8F08F9C
:106920003A4604F16B01C0F3C00013F089FBFF2865
:1069300084F82600C6D0384613F036FAC2E70CF0C9
:10694000AFFC8246002800F0AD810CF0B5FC834618
:10695000002800F0AC810EF0CFFC0546002800F0C6
:10696000A381406F4FF6FF732B8505F11C030028B0
:1069700000F0948105F1680205F164010B9309F0C0
:1069800063F9B5F86020704B22F4EF6222F0070241
:1069900042F4887242F00102A5F8602095F839208F
:1069A00002F03F0262F07F0285F8392095F87A20E4
:1069B00022F0070285F87A2095F83C2022F00702A1
:1069C00085F83C2095F8D82022F0070285F8D820D9
:1069D0004FF01B120026C5E916230622A5F8C02099
:1069E000C5E912666E67A5F87860EE852E6385F8B6
:1069F0003B602E65A5F8C460A5F8C860A5F8D06016
:106A0000A5F8CC60A5F8E46085F8E660C5F80861F3
:106A1000A5F80C61A5F820610BF02AFF95F83A2142
:106A2000A5F8386122F0030285F83A2195F87A201A
:106A3000A5F8406122F0180285F87A2095F86621C1
:106A400085F8436122F0070285F8662195F88621D2
:106A5000C5F844A166F3451285F8862195F8AE2164
:106A6000A5F8646166F3C302C5E94A01002100206C
:106A7000C5E94C0185F8AE2185F8D960A5F8846197
:106A8000C5F8E060A5F8AC61A5F8B8610EF07AFF32
:106A9000A5F8D2000EF07CFFD5F8BC112B4AA5F862
:106AA000D4000A40C5F8BC210EF078FF95F8C0214B
:106AB00060F3020285F8C0210EF076FF0B9B236283
:106AC00095F8C031C5F8C46160F3C503C4E918ABDB
:106AD000C5E97466C5E97266C5E905662E70ED61A3
:106AE00085F8C03114F0F0F9002840F0D38094F814
:106AF00024300121C3F342030DF133008DF833300C
:106B000009F022FA20BB236A002B3FF404AF0DF0FA
:106B1000DBF900E712F001073FF4FEAE236A5BB138
:106B200093F8202042F0020283F82020236A93F891
:106B30002030D8073FF5EFAE0FB0BDE8F04F0DF0B5
:106B400005BA00BFD4250020480148010000FFF627
:106B500099F80110024640460DF09CFA5849B4F8E5
:106B6000689031230025A360A0FB010152A3D3E963
:106B70000023C4E9055525706560E560FFF7C0FA9C
:106B800020610AF0F1FA0646B9F1000F08D198F831
:106B9000005005F00F05A5F10105B5FA85F56D0961
:106BA00094F82400236965F3000010F0010584F8CF
:106BB000240036D00020434ADFF80C9104930225CC
:106BC0000DF13408019305920321CDE902000694EA
:106BD00033460090CDF82080CDF81C902A460D95C4
:106BE0000AF0F6F941460CF011FC00288BD1374A27
:106BF00005924AF2D8320092CDE90300CDE90100B6
:106C0000CDF81C90CDF82080069433460122032154
:106C10000D950AF0DDF92EE0002738460FB0BDE8EB
:106C2000F08F2B4A2B48049303F24713A9FB000172
:106C3000069402951360912303FB0911224B0793DD
:106C4000204B05934FF6FF7309924FF0020903930F
:106C50000DF1340818A3D3E90023CDF83490CDF812
:106C60002080FFF74DFA3346CDE900504A462846CA
:106C700003210AF057F941460CF0C8FB00287FF4C5
:106C800042AF94F86A3043F0010384F86A3043E677
:106C9000122741E60DF018F903273DE605F16C00D7
:106CA000686767E6072737E658460CF00BFB504647
:106CB0000CF0FCFA07272FE68D49FD1A07000000AB
:106CC00000CA9A3B0541030011290300593C030007
:106CD00048260020002AE78470B590F824308AB056
:106CE000C3F342030D46044601210DF1230016466D
:106CF0008DF8233009F028F97178024628460DF006
:106D0000C9F91D491AA3D3E90023A0FB0101FFF72C
:106D1000F7F923699842054620D21B1A00220192F6
:106D2000164A0293164BA21AA3FB023202219209C1
:106D300000230A4409AE099112490591CDE90333B4
:106D40000321D2B20696009318460AF0B3F93146F1
:106D50000CF05CFB48B925610AB070BD02D9C21ABB
:106D60000023DCE700200AB070BD0C200AB070BD23
:106D70008D49FD1A0700000000CA9A3BD425002067
:106D800009CB3D8D112903002DE9F04FC38D468EAF
:106D90001E4490F80E31B6B2314413F007038BB0A5
:106DA00004461FFA81F940F0A381B0F8E870A9EB1E
:106DB00007011FFA81F9090400F10C82904690F94D
:106DC0003920002AC0F2358194F8E43084F8E530A7
:106DD00094F8842194F8853194F80C1184F80D11FD
:106DE000934206D094F8863103F00F03062B00F08F
:106DF0004782B14BD4F808511A68944204BF00226C
:106E00001A60002D00F044812868002800F04081BD
:106E1000B4F81031B4F82AC04268C4F808216345B8
:106E2000B4F81221B4F8141100F01781B4F828C096
:106E3000EB8318232B710023A5F806C02A846984EC
:106E40002B7729460CF044FA0CF04CFAA368002B7F
:106E5000C0F2F780608DB4F8105110FB09F080B2D9
:106E6000B0FBF5F115FB01F39BB298421FFA81FAD2
:106E7000C0F0CE8005FB110140F2E2438F4889B299
:106E800003FB01F1A1FB000189A3D3E90023FFF774
:106E900037F9A8EB0008E38D1F4494F93930BE1B85
:106EA000564440F2E247002BE68507FB05F6C0F2A8
:106EB0009681834A8349844840F69C431BF028FF0F
:106EC000404080F311884FF0030002DF0027B346F3
:106ED0007E4AB4F814317E49B4F81201A0853244D8
:106EE000B2FBF6F2A4F8C62042F2107202FB036372
:106EF0003144013BB1FBF6F1B3FBF6F6B4F81031C7
:106F000063858AB2831D9A42A4F8C260A4F8CE2099
:106F100004DDC0F57F43FA331A4492B294F80E317F
:106F2000A4F8CA201B0744BF0023A4F8C4300221E0
:106F3000012015F071FF002202218146012008F096
:106F4000D3FE64494FF4F072204608F05DFE00F174
:106F5000030A5FFA8AFA604B00945246012100202E
:106F60000AF0C0F830F002030CD0554A5B4956488D
:106F700040F6CB431BF0CCFE404080F311884FF02D
:106F8000030002DF4D4EABFB066B49A3D3E90023A0
:106F900030465946FFF7B4F8089420F07F45069430
:106FA0004F4823690493A5FB0001072303FB051148
:106FB0004C4B07934C4B0593301A4FF6FE736BEB1B
:106FC000010103934FF47A720023FFF799F84346C7
:106FD000CDE90150009752460121002009F0F8FF49
:106FE00030F002030CD0364A3C49374840F6E543BE
:106FF0001BF08EFE404080F311884FF0030002DF4B
:10700000B9F1000F40F0368100200BB0BDE8F08FE1
:107010001B1A2A4940F2E24003FB00F0A0FB0101E9
:1070200023A3D3E90023FFF76BF820F07F408044CF
:1070300031E790F8D920002A3FF4C6AE80F8D93065
:10704000C6E6E168626823F0004391422CBF8844A1
:107050009044A360A8EB0308FCE6B4F82CC0944568
:107060007FF4E4AE40F2E24C0CFB03FE42F2107CF3
:107070000CFB01EC0CF1FF3CBCFBFEFCB4F8C2E0E5
:107080001FFA8CFCE6457FF4D1AE01232B71D8E6C4
:107090000B4A16490C484FF442631BF039FE40403E
:1070A00080F311884FF0030002DF2868B0E600BFCC
:1070B0008D49FD1A070000006826002000CA9A3B8F
:1070C00014A9040000A50400A0A40400FF59620252
:1070D0007FC3C90170150020694B0300F4A90400A7
:1070E0008D49FD1A114B030071910300E0A90400C2
:1070F00001200CF0FDF80646002800F0CF8074480F
:1071000008F04CFD0546002800F0C880714B1A6855
:10711000002A00F0BB800CF009F92B793268D4F812
:107120000811516043F00303C4F8086100202B717B
:107130000C236B71E87194F81C312B72664AD4F8F9
:107140001831A18DA2FB03239B0AA5F80930B4F8DE
:107150001031A5F80B30B4F8123194F80E21A5F8CF
:107160000D300631B4F81431A5F80F304944D4F885
:10717000C43189B260F30202A4F8E81084F80E2149
:10718000A5F81110BBB194F86621960713D494F8B2
:10719000BF21D0070FD4D4F8D0219342D4F8C8210E
:1071A0007FD062B91A7902F00302032A00F08580C9
:1071B000C4F8C83105E0D4F8C821002A68D0D4F852
:1071C000CC311A682A601D602B68C4F8CC510BB909
:1071D000C4F8D4516FF076000BB0BDE8F08F226C8C
:1071E000A36C02FB1933A36413F0C0FE054694F8A8
:1071F000D800C0F3C20013F0BBFE054406FB05F542
:10720000364B94F81C2105F5742505F23F25A3FBA8
:107210000535AD0C07FB02F2A36C226505FB0AF0F5
:1072200072080344963A934228BF13462564A6EB9E
:10723000050B2B4DC4E911230023C4F8E030A0FB5B
:10724000050121A3D3E90023FEF75AFF2249A8EB49
:107250000008D4F81801A1FB0030800A07FB00F0F9
:1072600019A3D3E90023A0FB0501FEF749FF20F095
:107270007F472DE601220221104608F035FDC3E6C6
:10728000002384F88521A4F8C830B2E51C6042E7E9
:107290002B60C4E97155C4F8CC5198E76FF06800D1
:1072A000B3E61968C4F8D011002A88D11A682A6098
:1072B0001D602B68C4E9725589E7DA79032AF5D095
:1072C0000A2A7FF475AFF1E78D49FD1A0700000027
:1072D000FC260020682600205917B7D183DE1B4307
:1072E00000CA9A3B000000002DE9F04F0B68D2F86D
:1072F00000801B6897B00C460A93037F00F11E01C3
:10730000C3F380130546174614A806228DF84730AC
:107310001DF0D6FD94F81190B9F1FF0F0DF1480B57
:107320005BD05A460DF14701484612F033FA9DF8FA
:10733000473002338DF847302946032251F82E6B2F
:1073400007F1080007F1040A1DF0BAFD07F1180360
:10735000042205F12A0150460B931DF0B1FD0B9B51
:10736000052205F13A0118461DF0AAFD0B9B0521E7
:10737000184608F0E9FD7B7F95F83F2000F03F00BC
:1073800060F305037B77C2F30403BB77AB8EFB810D
:10739000012899B202F01F0305D91B3303F01F0324
:1073A0000B2B00D8F9B90A9BEC6800225A6197F8B8
:1073B0002030304662F30003012687F8203029464A
:1073C0002E710BF085FF2068267121460BF080FF9F
:1073D0000BF088FF17B0BDE8F08F062214A95846BD
:1073E0001DF06EFDA8E723680020586095F837006F
:1073F00095F8363043EA00233B8298F8D83052099A
:1074000062F3C5036A8E0D9240F2E24202FB01F084
:1074100088F8D8300B9013F0A9FD0C9098F8D8009C
:10742000C0F3C20013F0A4FD0C9BC54903440B98A4
:1074300000FB03F303F5742303F23F23A1FB0323B3
:107440009B0C7B6295F83130398A40F2E24203FBB3
:1074500002F24308963BBA63BB622B8FB94AADF880
:107460003A309E46B84B844603440244B3FBF0F3E3
:10747000B2FBF0F242F21070A8F8C6201FFA8EF2AA
:1074800000FB02C2013A881DB2FBFCF2A8F8C22040
:107490009AB28242A8F8CE2004DDC1F57F41FA31CC
:1074A0000A4492B2A8F8CA205146042208F1DC002E
:1074B0001DF006FD2B4613F81C2FC2F34011DA070E
:1074C0000F910C9100F115814FF48073AB830A9BEF
:1074D00093F8260012F0CEFE0146062205F12B009D
:1074E000002900F0EB8005F124011DF0E9FCB9F161
:1074F000FF0F05F1250000F0E48014A906221DF01D
:10750000DFFC9DF84730AB775946062205F11F0096
:107510001DF0D6FC98F8D830FA896A863A8AAA868D
:10752000C3F3C203BDF83A2085F83830EA864046F6
:107530000DF0EEFE2946B881E880656830460BF014
:10754000C7FEBB89EB801B232B710C9B2E68002B85
:1075500040F0BC809DF83C302B77294630460BF03C
:10756000B7FE0BF0BFFE97F84500B7F84050B7F8EC
:107570004260012100F0070013F008FB2E4406F5DD
:10758000E1763118824671484FF000093123C8F87E
:107590000830A1FB000168A3D3E90023C8F80490D8
:1075A000C8F80C90FEF7ACFD0B9B7E6A0D9AE5685F
:1075B0009E1B40F2E24303FB025520F07F4005F2A0
:1075C000B245A5EB0A034A460221C8F81000012083
:1075D0000B9308F089FB0A9D28460CF05BFF821C88
:1075E0005B4B0095D2B24846012109F07BFD012892
:1075F00000F08C800A9B93F82430DB0771D440465E
:107600000DF086FEDFF84491A6FB09564AA3D3E9A4
:107610000023834631462846FEF772FDA368CDF865
:1076200018800BF10304A3F13A0B4A4B07934A4B22
:1076300005934FF4E4730893D8F8103020F07F4797
:1076400046484FF0000ACDE903A3A7FB000107233A
:10765000281A03FB071166EB01014FF47A7200232D
:10766000FEF74EFD0B9BCDE90170A3FB090132A390
:10767000D3E90023FEF744FDE4B220F07F40009000
:107680005B4622460121504609F0A2FC30F002037D
:107690000CD0334A3349344840F2C9131BF038FB4D
:1076A000404080F311884FF0030002DF01220221E5
:1076B000104608F019FB17B0BDE8F08F1DF00BFC69
:1076C00015E7062200211DF006FC1AE77B7F43F038
:1076D00040037B77504611F069FE0123F8832B7736
:1076E0003BE70023012200931846114609F0FAFCFB
:1076F00085E71B4A1D491C48F1231BF009FB40404C
:1077000080F311884FF0030002DFDDE60BF0BCFED2
:107710000A9B83423FF46EAF114A1549124840F26A
:107720009F231BF0F5FA404080F311884FF00300CF
:1077300002DF5FE7AFF300808D49FD1A070000000C
:1077400083DE1B43FF5962027FC3C90100CA9A3B13
:107750003591030005910300719103008D49FD1AD5
:1077600008AB0400F4A90400A0A4040088A5040048
:1077700064AB0400000000002DE9F04F8FB0DFF88B
:10778000D8800A900DF137010DF136000BF018FE8C
:10779000324F9DF836A09DF837B009F0E5FCD8F8D7
:1077A0000040A4FB07542AA3D3E9002381462146C5
:1077B0002846FEF7A5FC0A9B0B90D8F80400069318
:1077C000274B0593002622A3D3E90023A0FB070142
:1077D000CDE90766FEF794FC0B9B20F07F40CDE9D6
:1077E0000360204823F07F47A7FB00010723281AE6
:1077F00003FB071164EB01014FF47A720023FEF7DB
:107800007FFC0096CDE901704B465A460321504655
:1078100009F0DEFB30F0020416D1134A13480023AE
:107820001AF0A2F868B19DF837209DF83600009450
:107830002346032109F056FC6FF073000FB0BDE83A
:10784000F08FD8F80C00F9E76FF08B00F6E700BF77
:107850008D49FD1A070000001837002000CA9A3B26
:1078600099EC03008D49FD1A447B0B00283700205A
:1078700038B50F4D044609F077FCA96809F076FC8D
:107880006968B0FBF4F404440A4807A3D3E9002371
:10789000A1FB0001FEF734FC20F07F40844294BF3E
:1078A0000020012038BD00BF8D49FD1A07000000EF
:1078B0001837002000CA9A3B01481AF09BB900BF54
:1078C0006002002007B521F034FD4FF47A72A0FB6E
:1078D000020302FB0133C00B40EA4340064B4FF466
:1078E0000042186000230548CDE900231AF026FF66
:1078F000002003B05DF804FBF0190020680A0020A6
:1079000008B5044B187800F0CDF9BDE808401BF02D
:107910003AB800BF8C3B0020044B1A78824202D058
:107920001870FFF7EDBF0020704700BF8C3B0020B0
:1079300008B521F0FEFC4FF47A72A0FB020302FBB3
:107940000133C00B40EA4340034B1860BDE80840D8
:107950000020FFF7E1BF00BFF019002008B521F0BB
:10796000E8FC4FF47A72A0FB020302FB0133C00B68
:1079700040EA4340064B1B68C01A47F23053984216
:1079800004DDBDE808400120FFF7C6BF08BD00BF09
:10799000F019002030B5184C8DB00022002303A947
:1079A000204619F073FE08B10DB030BD059DDDE92C
:1079B000030100F059F8B5FA85F56D09FF238DF83C
:1079C000183007908DF8205021F0B3FC4FF47A72F4
:1079D000A0FB020302FB0131C00B40EA4140C90B8E
:1079E0008DE8030006ABCDE90A010FCB00F066F984
:1079F0001AF0C9FFD1E700BFB40B00201FB583F018
:107A00000103CDE9011203930022002301A90448D8
:107A100019F0E6FD03481AF0EDF805B05DF804FB37
:107A2000B40B0020F419002010B519F0AFFB044688
:107A300078B10A490A4821F0B5FAA36809491B68D8
:107A400020469847A3689B6833B12046984700209A
:107A500010BD6FF01500FBE71846F9E795790200B5
:107A6000F4190020FD7902000C2303FB00110631FC
:107A7000014B53F8210070474C9C04002DE9F04164
:107A80000D46164619F082FB094B0C2101FB05F24D
:107A90009F189E54786040B183689B6839460831CE
:107AA0001BB1BDE8F041034A1847BDE8F08100BFB3
:107AB000700200203729040008B50022114605484D
:107AC000FFF7DCFF012204481146FFF7D7FF002033
:107AD00008BD00BFACB30400B9B304002DE9F04108
:107AE000134B144EA3EB060807460D4606EBC106E2
:107AF000C8F3C708A84504DC0024384621F0C6FDB9
:107B000013E032683B689A420AD1736838461B68B2
:107B1000984701280446EFD0022804D00028ECD171
:107B200001350836E6E73D7100242046BDE8F081C6
:107B300018BA040000BA04002DE9F041466807694C
:107B40000546306819F022FB3860002845D096F8C9
:107B500005E031794EF40072D0F810C0D0F80880FA
:107B6000012303FA01F4DCF800301EF0010F14BF0A
:107B70002343A343CCF80030D8F80030984778BBB3
:107B800002F0AAF8184801F0E9FF044610BB1749B3
:107B9000174821F02DFA174801F08AFF7B795BB96D
:107BA00001233B710022002311481AF08BF8AB68C7
:107BB0001B680BB128469847F18859B140F2E7306D
:107BC0004FF47A72002300EBC1300021FEF798FADF
:107BD0001AF088FB2046BDE8F0816FF01504F9E744
:107BE0006FF00404F6E700BF88020020F97B020072
:107BF000E00D0020C7B3040030B58BB0084C204620
:107C000019F0C4FA0569074A23462821684602F09C
:107C1000A5FE0122291D684601F010FF0BB030BD02
:107C2000D1B30400DBB3040008B54FF4F012002315
:107C300002481AF07BF800EAE07008BDE00D002071
:107C40002DE9F3410C461646134901AA1F461BF0C5
:107C500049FED8B1DDF80480B8F1000F16D1012C2F
:107C600017D10E4D2246291D3846B047002806DBA5
:107C70006C712C790A482CB11AF09BFE404602B078
:107C8000BDE8F0811AF0A7FE2046F8E76FF001008A
:107C9000F5E76FF01500F2E7D1B30400041A0020F5
:107CA0002898040010B504460C2021F0F6FC024A86
:107CB0000260047210BD00BF4C9D040084B070B51A
:107CC00004AC84E80F00202021F0E7FC0446084BB8
:107CD00044F8083B04AD06460FCD0FC495E80300F9
:107CE00084E803003046BDE8704004B0704700BF30
:107CF000509D04000268034B9A420CBF08300020DC
:107D0000704700BF509D04007FB56C4684E80F00AB
:107D1000182021F0C2FC0546054B45F8083B0646F5
:107D200094E80F0085E80F00304604B070BD00BF36
:107D3000549D040010B504460C2021F0AEFC024A0C
:107D40000260047210BD00BF589D040082B038B5B7
:107D500004A981E80C000546114819F017FA0446F9
:107D6000A0B16B68012B0CD0022B05D0A3B9BDE8E4
:107D7000384002B01AF055BE1AF05AFE00282046CC
:107D8000F5DCBDE8384002B01AF044BE6FF00400E4
:107D9000BDE8384002B070476FF08500F8E700BFDB
:107DA000D1B3040082B010B502A981E80C000446EA
:107DB0000A4819F0EBF958B16368022B06D11AF0A2
:107DC00037FE0028CCBF002001206060002001E0C9
:107DD0006FF00400BDE8104002B07047D1B304005A
:107DE00010B504460C2021F058FC024A02600472CF
:107DF00010BD00BF8C9D0400014819F0FBBE00BF00
:107E0000A002002037B50F4CA5682C21EB68204656
:107E10009847A0B92C212B696A462046984770B92B
:107E2000094C009B22789A4209D0D8B2207000F009
:107E3000FDFC20B92078FFF7D3FF1AF0A4FD03B0B2
:107E400030BD00BF409804008D3B002013B50B48A7
:107E500020F07AFE70B1FFF7D5FF044638B94FF431
:107E6000F01200230648CDE900231AF067FC2046F3
:107E700002B010BD6FF01204F9E700BF4098040093
:107E8000A00A002010B504460C2021F006FC024A8E
:107E90000260047210BD00BF909D04001FB5102445
:107EA0000294044C0194BDF8184000941FF0B4F9FA
:107EB00004B010BDA13B002007B5064B0093064956
:107EC000064805234FF4247219F09AFE002003B0EF
:107ED0005DF804FB249E0400883C0020100E002066
:107EE00070B50F4D0F4E8AB0002200236946284618
:107EF00019F0CCFB044608B10AB070BD2146182227
:107F000004A81CF0E8FF10230DEB030120460596A2
:107F1000CDF818D0ADF81C3006F0BEFBE4E700BF8A
:107F2000840B0020AC9D04001FB50E490E4840F69E
:107F3000CD42002319F054FB044670B110F10B0F31
:107F400008D1002200236946074819F09FFBFFF77C
:107F5000EBFF0446204604B010BD0449044821F05C
:107F60002AF8F7E7A13B0020840B0020D80200206C
:107F7000100E0020C2080549012300F0070003FA93
:107F800000F08B5C18438854FFF7CEBFA13B002064
:107F9000C208054900F0070001238340885C20EAFD
:107FA00003008854FFF7C0BFA13B002008B5B1FA19
:107FB00081F0044B40091870FFF764FFBDE80840EA
:107FC0001AF0E1BCB13B002070B503788AB00446DA
:107FD0000E4607AD032B20D8DFE803F002191B1D66
:107FE000114928461CF02DFF63780493A37803936E
:107FF000E378029323790193637900930B4AA37981
:1080000005951E2130461AF090FE0AB070BD084951
:10801000E7E70849E5E70849E3E7084A0A2128466F
:108020001AF083FEE0E700BFE1B404000AB50400E3
:10803000E8B40400EFB40400F9B4040003B504008C
:1080400000B589B01DF0AFFF6946FFF7BDFF054BD6
:1080500000201870FFF716FF1AF095FC09B05DF8C4
:1080600004FB00BFB13B002070B5002088B003F0D6
:108070005DFC0646B8B901F02FFE0C480C4D01F02E
:1080800017FD0C4801F014FD0B4804F049FE0FCD1C
:1080900003AC0FC42B6823600849009633460322C3
:1080A00003A804F04DF9304608B070BD2DB50400AA
:1080B000A09B040031B50400E80200202C9E0400BF
:1080C000024B1870024819F095BD00BF210A00202C
:1080D0000803002008B5044801F0BEF9002818BFC5
:1080E0006FF0150008BD00BFC1800200084B1B786F
:1080F000033B082B08D8DFE803F009050907070749
:1081000007070500002070470120704702207047D4
:10811000210A00200148FFF787BC00BF34B50400E6
:1081200030B50A4C0A44914200D130BD11F8013BF0
:1081300058400309E35C83EA0013DDB2C3F3031381
:10814000E05C80EA0510C0B2EDE700BF3AB504007C
:108150000B6801330B60014B1B68184718030020A4
:1081600007B50B46002102460191034801A900F022
:10817000F9F803B05DF804FB5181020030B585B019
:10818000CDE901010446002501A90548039500F049
:10819000E9F8DDE902309842B8BF255405B030BD9A
:1081A000EB2C04002DE9F84FB0F8189019F00808EE
:1081B000044693460DD001290CBF49F0100949F03F
:1081C0002009A0F818908BF31188BFF36F8FBDE8DA
:1081D000F88F09F00709022907D120461AF0CCFDD3
:1081E0000028F0D00128238B4ED16769218B002F06
:1081F00015DA256821F00701C4E9008841F0010182
:1082000021830026218B01F0070ACA4502D0A3680A
:10821000002B5AD10DB9002E71D0002356E001F089
:1082200007035A1F012A1ED821F00701062B2568D3
:1082300089B2C4E900880AD13DB1638B2A4612682D
:1082400001339BB2002AFAD1638341F002012183FA
:1082500020461AF091FD06460028D3D0238B43F028
:1082600020032383CDE7042B0CD121F0070189B231
:10827000218320461AF080FD05460028C1D041F038
:10828000200121830025BCE7032809D1226923F0BE
:108290000703166843F00603238300252F46B1E742
:1082A000042806D1226923F00703566843F004032B
:1082B000F2E7052806D1226923F00703966843F008
:1082C0000503E9E700252E46E8E7012341F0080110
:1082D00021838BF31188BFF36F8FFBB985BB16B178
:1082E0001F492046B0474FF02003EFF3118B83F373
:1082F0001288BFF36F8F238B23F008032383238B14
:10830000DA0625D523F0100323830121B4F8189051
:1083100009F0070900297FF45EAF54E7A16800293E
:10832000DCD0D1F80090D1F804B03B46524620464C
:10833000D847B9F1000FD1D04946D9F80090F2E7FB
:1083400029463B46524620462D681AF031FDC5E7C6
:1083500013F020011EBF23F0200323830221D5E761
:10836000DD2D04002DE9F04F8FB01D46531E019006
:108370008A4602934FF00009029B5878252803F1A2
:10838000010421D14FF0000C18464FF0FF370230A6
:108390006146CDF80CC03C460A2602780290392A84
:1083A00000F1010058D81F2A18D8002A00F0F681E1
:1083B000019B514625209847029B51461878019B06
:1083C000984709F10209D7E7002800F0E781019BEF
:1083D0005146984709F101090294CDE7A2F1200323
:1083E000192BE5D80FF2040E5EF823F05584020035
:1083F000B1830200B183020055840200B183020000
:10840000D9840200B1830200B1830200B18302006B
:10841000B18302001B85020055840200B183020073
:108420002F850200E7840200B1830200F38402007A
:108430000F8502000F8502000F8502000F850200E4
:108440000F8502000F8502000F8502000F850200D4
:108450000F8502009446A0E7582A00F01B81A2F184
:1084600063035FFA83FEBEF1170FA1D8172B9FD8C5
:108470000FF2040E5EF823F0F78602005585020025
:10848000B1830200B1830200B1830200358502008E
:1084900055850200B1830200B183020035850200D8
:1084A000B1830200B1830200B18302003F86020063
:1084B000B1830200B1830200D7860200B1830200BB
:1084C00055850200B1830200B18302003F8602009D
:1084D000B183020035850200019B51462520984753
:1084E00009F1010948E7039B03F0FE03039300270A
:1084F00053E7002C0BDA002F0BDA039B002B00F064
:10850000498124EAE47406FB0424303C45E7002F4B
:10851000F7DB06FB0727303F3FE7002F55F8043B0A
:1085200001DB1F4639E71C1EBFF637AF644202234A
:10853000039332E7682A03D1682906D148212CE742
:108540006C2A02D16C2900F0278100297FF430AF1A
:10855000114622E77A2907D1752A05F104062D680C
:1085600062D14FF000080DE06C29F5D04C29F3D111
:10857000EB1D23F007031E46752AF6E8020107D11A
:10858000D3E90058BCF1200F51D1864B013C09E0E2
:1085900005468846B8F1000FF4DA6D42824B68EB6D
:1085A0004808013C00930DAB05934FF0000B2846A3
:1085B00041460A220023CDF810B0FDF7A1FD059B2E
:1085C000CDF81C80303203F801292846CDE9053565
:1085D000414600230A22FDF793FD069B0A2B079BC9
:1085E00073F100030BF1FF3B05468846DFD2049B85
:1085F000049AC3F1010B0EAB9D18002FA5F10405E1
:1086000004DA039B13F0010F18BF2746039BA7EB67
:108610000B08B8F1000FD4BFA4EB0B04E41B9B07BD
:1086200000F18180274677E04FEAE578B2E7BCF1B8
:108630002B0F0ABF5D4B5E4B04F1FF34B2E7702A8B
:1086400028D12E46002356F8041B00295CD0594837
:108650000090023C02F06002A2F139080DF1340EE4
:10866000002501F00F02092A88BF424430320EF87B
:10867000012910294FEA111242EA03724FEA13103E
:1086800073F1000305F1FF3C21D20EABC5F1010BE4
:108690001D44B2E76C2904D12E46002356F8041B72
:1086A00008E04C29F8D1073525F007052E466B6800
:1086B00056F8081BBCF1230F06D13F4D3D4812F080
:1086C000200F08BF2846C3E739480090C2E7654637
:1086D00011460346C5E72E4656F8045B28461CF0B3
:1086E000BAFB002F834602DBB842A8BFBB46304B23
:1086F000009300278AE72E464FF0010B56F8043B03
:108700008DF8203008ADF2E72C4D4FF0050BEEE769
:10871000019B514620209847013FF9D524EAE47394
:10872000013C9944E41A009BA9EB030904E000937F
:108730005146019B9847009B09EB030713F8010B77
:108740000028F4D1C146B9F1010913D528EAE87827
:10875000D946B9F1010912D5BBF1000FA8BFD84421
:108760002546013D11D5002CA8BFA04408EB070900
:10877000354601E6019B514630209847E3E715F85E
:10878000010B019B51469847E3E7019B514620208E
:108790009847E6E70123CBE64C21FEE548460FB0BB
:1087A000BDE8F08F4CB504004AB504004EB5040096
:1087B00084B5040053B5040050B5040056B5040058
:1087C00008B54FF02002EFF3118382F31288BFF354
:1087D0006F8F02F0F3F803481AF09AFA01F0C4FD23
:1087E000FCE700BF5CB504001FB507240294044CED
:1087F0000194BDF8184000941EF00EFD04B010BDA9
:10880000220A002010B5084C86B024788DF8174055
:10881000012402940DF117040194BDF82040009446
:108820001EF0FAFC06B010BD290A002000B589B080
:1088300064288DF8070019D80E4B182218700021F3
:1088400002A81CF048FB0C4B03930DF107030493A3
:1088500002A901230020ADF8143005F01DFF10F12E
:10886000800F08BF002009B05DF804FB6FF0150011
:10887000F9E700BF290A0020E49E04002DE9F74330
:108880000F4606460821C06ADFF850901AF0D9FD5D
:108890003C68241A80463C6004EA0905AC4203D8CF
:1088A000002003B0BDE8F08308236A462146304625
:1088B0001AF03CFD0028F4D1694630461AF0CBFD91
:1088C00040B1BDF80230BDF804203C6005EA09055E
:1088D00013441D44A4EB0804E0E700BF0000FFFFC1
:1088E0002DE9F04F044689B00D4600F114073846D3
:1088F00020F004FA284618F049FCA062002800F095
:108900001F818368DB689847E06228B96FF015051E
:10891000284609B0BDE8F08FA06A8368DB689847F5
:108920000368013B1F2BF1D8A06A216805AA1FF03C
:108930007DFC0028EAD1A589002DE7D0069BB5FB78
:10894000F3F203FB1255002DE0D1E389012BDDD9B1
:10895000E36A009593F804804FF0FF334FF0FF3245
:10896000384618F0EDFEE06A08211AF06AFDA946C3
:108970000646E3891FFA85FA534545D8E3894B45F6
:1089800000F0D38053450BD1009908234246891B40
:1089900020461AF003FD18B9E08969461AF046FD31
:1089A00069462046FFF76AFF0546002840F0BF8071
:1089B000009BDFF8E491636003EA0903A360D4E954
:1089C000011399420ED3082301AA20461AF0AEFCE7
:1089D000C0B901AB13F8012B904540F0C1800130C4
:1089E0000828F7D16368E0891B0C1B0469460093D3
:1089F0001AF01CFDA3890099424620461AF0CEFCCD
:108A0000002826DA054692E0A1892B04891B13FA77
:108A100081F142460823204600911AF0BFFC78B14C
:108A2000E08969461AF002FD09F10109009908235D
:108A3000424620461FFA89F91AF0B0FC00289DD062
:108A4000013596E7BAF1000F00F0A2806FF01C0527
:108A50006DE045D06368334400934FF6FF7800998A
:108A6000A3898AB29B1B9A4215D3616820461AF0EB
:108A7000BAFC0028C6D16368474AA18913400B4459
:108A8000A3EB460363601340A36020461AF0D8FDB1
:108A9000002840D0B6E7082303AA20461AF046FC77
:108AA0000028AFD103A920461AF0D5FC38B1BDF893
:108AB0000C30434503D1BDF81030002B43D0009B50
:108AC00033440093CBE75B1A424620461AF066FC1B
:108AD000002897DB08D0E26AA36812681344A360F9
:108AE000D4E901318B42EED86168A38901EB4602DB
:108AF0009A42CDD1DFF8A080A36801EA0802934230
:108B0000C6D020461AF06FFC00287FF47BAF636864
:108B100003EA0803A360A089A388A0EB4606B3423A
:108B200005D120461AF077FD6CE76FF02C0538462A
:108B300018F07EFE002D7FF4EBAE01232374E7E6F0
:108B40006FF00505E4E66368E0891B0C1B046946C9
:108B500000931AF06BFC009920461AF044FC97E74A
:108B600001A920461AF077FCD4F804B080B1009A2D
:108B7000BDF808A0BDF80610E06A02EA0902A2608A
:108B800051441AF05EFC02445A45A2603FF45AAFC9
:108B9000ABEB0603636012E70000FFFF2DE9F04F27
:108BA0001E46037C89B0044689469046002B00F09F
:108BB000B280C26A082110461AF043FC3146824650
:108BC00010461AF03EFCA389A3EB8A039E42074697
:108BD00000F2A4801EB1B8F1000F00F09F8063681E
:108BE000039304AA03A92046DDF80CB01AF06BFC2D
:108BF000054600285AD1BDF810304B4505D06268B3
:108C0000039B9A42EDD1DEB950E004A920461AF048
:108C100022FC0028F3D0BDF8143086B19E420FD15B
:108C2000BDF812004FEA1B41090401443346424695
:108C300020461AF089FB002802DC054636E0ABB37B
:108C4000002F37D104F1140A4FF0FF324FF0FF33F9
:108C5000504618F075FDDFF8CCB0E3899D4257D03F
:108C6000D4E90123F9188A4227D3ADF81A3006A8AF
:108C7000FF238DF81E30ADF81890ADF81C601AF087
:108C8000CCFB3246414620461AF0A1FC034638B9D7
:108C900006A920461AF0AEFC002814BF034633464E
:108CA0000193504618F0C4FD019B1D46284609B0AB
:108CB000BDE8F08F5744BFB2C4E70821E06A1AF05C
:108CC000C0FB4FF6FF73ADF818300023ADF81C3031
:108CD0001318ADF81A30A38902EA0B021A44121ACB
:108CE000626006A81AF099FB06A920461AF082FCD9
:108CF000E089211D1AF09AFB636803EA0B03A36065
:108D000020461AF09DFC03460028C9D10135A4E78E
:108D10006FF01B03C4E76FF00C05C7E76FF0150594
:108D2000C4E700BF0000FFFF0C4BF0B45F6A0C4EBD
:108D30000C4BB34203D36FF08500F0BC70475D6805
:108D4000BD4209D31C693CB195F802C00579AC4518
:108D500002D12346F0BC18472433EAE70C1A00205E
:108D6000D90D0020D90D00202DE9F047134CDFF874
:108D70005080DFF8509005460E461746444503D311
:108D80006FF08500BDE8F0876268D9F824309A4218
:108D900012D3A36983B190782979884205D13A46E4
:108DA00031462846BDE8F04718475279012A03D1D9
:108DB0003A463146284698472434DFE7D90D00204B
:108DC000D90D00200C1A00202DE9F0410B4CDFF8E2
:108DD000308005460E461746444502D36FF08500A5
:108DE00009E063690BB92434F6E73A463146284670
:108DF00098470028F7D1BDE8F08100BFD90D0020C9
:108E0000D90D002007B583788DF8003003794279B9
:108E100043EA0223ADF80230C378684603F0030347
:108E20008DF8043014F08EFE10F1780F04D018B1D4
:108E3000002003B05DF804FB9DF8000014F008FF6B
:108E400010F1780F01D00028F2D1024B012083F8F5
:108E5000B900EEE70C1A00200248082200211CF09D
:108E60003AB800BFC71A002070B50B4B0B4CA34299
:108E700001D3002070BD196A1E7F00220439D5B2CB
:108E8000AE4201D82433F2E7013211F83250854264
:108E9000F5D10120EEE700BFD90D0020D90D00204B
:108EA000094808B50378C3F341130A3350F8233057
:108EB0003BB100F1080200F110019847C043C00F18
:108EC00008BD1846FCE700BF0C1A002004282DE955
:108ED000F047DFF8888004460E460ED1FFF7BCFF4E
:108EE000DFF87C9099F8B9305BB100F013FD042CE9
:108EF00001D0012C05D11B4D16E00528F0D001282A
:108F0000EED0184D45451ED3154B1B6A1BB3314699
:108F10002046BDE8F0471847D5F820A000272A7F53
:108F2000FBB29A4203D824354545F5D307E00AEB56
:108F3000C3030137187914F0B5FE0028EFDA0023D7
:108F400089F8B930DDE7EB681BB132462146284687
:108F500098472435D6E7BDE8F08700BFD90D00203B
:108F60000C1A0020D90D002073B5C4B263060D465B
:108F70008DF8074007D02046FFF776FF88B10F4BEA
:108F800093F8BA0068B10D4E204665B114F0FCFDAF
:108F9000F3690BB9012004E008200DF1070198479F
:108FA000284602B070BD14F017FEF369002BF1D013
:108FB0000DF1070109209847ECE700BF0C1A0020CB
:108FC0002DE9F047A84EB36905460F46904663B9B0
:108FD000287800F01F00012800F0A680022800F089
:108FE0000E8138B16FF0150095E098470028EFD159
:108FF000002090E095F900206B78002A31DA062BEA
:10900000D8F8002010D0082B25D0002BEAD1012160
:109010005370117096F8C310002918BF022343F053
:109020000103137002231AE06B881A0A111F012929
:10903000D8D9072AD6D8D9B2736A1C78002CD1D0D7
:109040005D78954203D1814200F0128101302344C2
:10905000F3E71B7812E196F8BA30137001233B60F6
:1090600059E0013B082BBDD801A252F823F000BF04
:1090700009910200E58F02001B910200E58F0200BA
:1090800095900200E58F0200E58F0200E58F020057
:10909000A1900200A87814F043FD0028A8D0A1E711
:1090A0006C8844B14FF0FF08776A0020C1463C78D5
:1090B0006CB9002896D0FFF7CFFE6B8886F8BA30DF
:1090C000F369002B94D069490320984790E77B7897
:1090D000042B0CD0052B0DD0022B05D197F8058061
:1090E0006A88424508BF01203B781F44DFE797F8B4
:1090F0000390F9E76B884345F6D1B9F1000FF3D13E
:109100003846FFF77FFEEFE76B88012B7FF46AAFED
:10911000002086F8C300BDE8F0876B88012B7FF440
:1091200061AF86F8C33063E796F8BA30002B3FF49E
:1091300059AF746AB5F804C0287923461A78002A12
:109140003FF450AF5978022904D193F804E08645E2
:1091500000F296801344F1E7107050703960DAE73E
:109160000C449BE00B287FF43DAF00274FF0FF0A33
:10917000D046B94606E06378042B0FD0052B22D0E9
:1091800023781C442378002BF5D1F36913B14946A9
:1091900007209847002F7FF42BAF23E794F802A015
:1091A000AA8894F8038092455346E9D16988884596
:1091B0001FFA88F2E4D1072B1ED83344A14683F866
:1091C000BB200127DCE7AB885345D9D1AB784345B9
:1091D0000DD0A778384600F07FFB384614F062FDCA
:1091E00010F1780FEDD0B0FA80F77F09C8E720467C
:1091F000FFF708FE0746C3E7A1460027C0E795F939
:1092000000206B78002A19DA002B7FF4EBAE2C7962
:1092100063060AD02046FFF727FE00283FF4E2AE9F
:1092200096F8BA30002B3FF4DDAED8F80050204657
:10923000294614F0F1FC00206870F3E6012B08D0F9
:10924000032B7FF4CFAE6B88002B7FF4CBAE0121D4
:1092500003E0698800297FF4C5AEA888FFF784FE83
:1092600000287FF4C5AEBDE60C1A0020C61A002007
:10927000022AC8F800307FF4ECAE5B883B60B7E6AA
:1092800095F900306878002BBFF66CAFD8F8002055
:1092900000283FF461AF0A287FF4A4AE21780029AA
:1092A0003FF4A0AE6378042B7FF45AAFA3789C45BB
:1092B0007FF456AF072B96BF9B19002393F8BB3062
:1092C00013700123DAE700BF13B5134C237DCBB92C
:1092D000E268A168019201AB80201AF0C8FA019AF5
:1092E000A3681344A360E3689B1AE36043B93AB1EF
:1092F0002369E2889A4203DD9B0601D1012323758D
:1093000002B010BD00231A4619468020237502B012
:10931000BDE8104014F0ECBC0C1A002030B585B04C
:10932000002302460D46019300285FD100293CD15D
:1093300008220B460DEB02011EF0D6FD002804DAD0
:10934000802014F021FC05B030BD2D4C9DF8093073
:109350009DF808206370BDF80A306380BDF80C30BA
:109360002270A38004F13801BDF80E30E3801206AC
:10937000C4E90355A16025750AD4802B04D9802047
:1093800014F002FC0020DCE713B1C4E90333DAE790
:10939000FFF786FD0028D3D0E28823699A42D4BF24
:1093A000E260E360FFF790FFCDE7154CD4E90215CA
:1093B000002D01AB04DC1EF097FD0028C3DABFE7E7
:1093C0002A461EF091FD0028D9DB0199A268E368C6
:1093D0000A445B1AA260E360002BB4D104F13803A5
:1093E000A360FFF75DFD0028DCD1A9E78028AAD1A2
:1093F000034BDA68002AD5D11B7D002BD2D1A2E71E
:109400000C1A0020054B064A9A62064ADA62064A9E
:109410001A63064A58629A61002070470C1A0020AD
:10942000C18F0200298D0200C98D0200698D0200E2
:10943000084B10B593F8B84034B900F0A3F930B137
:10944000FFF7E0FF204610BD6FF07700FBE74FF01D
:10945000FF30F8E70C1A00202DE9F3410446354DA2
:1094600035484FF0FF324FF0FF3318F069F995F8A7
:10947000B860002E5BD131482C62E86114F04EFDDB
:1094800014F010FB041E36DB00F06CFA041E32DB15
:1094900040236846ADF802308DF804608DF8006016
:1094A00014F050FB041E26DB802768468DF8007000
:1094B00014F048FB041E1EDB2149304614F01AFD4F
:1094C000041E18DB1E49384614F014FD041E12DB7E
:1094D0001C4CDFF87480444514D3002014F0B8FB12
:1094E000041E08DB802014F0B3FB041E03DB012301
:1094F00085F8B8300024104818F09AF9204602B0D8
:10950000BDE8F081276A0026227FF3B29A4201D893
:109510002434E0E707EBC30257F83310107914F056
:10952000E9FC01360028EFD04FF0FF34E3E76FF09D
:109530007704E0E70C1A0020700B0020CD8E0200AB
:109540001D930200D90D0020D90D002030B51F4B0E
:109550008BB005AA03F1100518685968144603C4B6
:109560000833AB422246F7D11B782370102200212A
:1095700001A81BF0B0FC1222002115481BF0ABFC27
:10958000102101A81EF0B9FD00281BDD0828B8BF76
:109590000820083801AB0E4A1844002110F8013B9E
:1095A0000AAC04EB131403F00F0314F8144C1470FA
:1095B0000AAC2344013113F8143C5370082902F11A
:1095C0000202EBD102480BB030BD00BFA0B50400D1
:1095D000B23B00202DE9F04F044685B000254FF046
:1095E000011BA9462E46AA46207820B9614B0234B9
:1095F0009C421FD0F2E76378052B05D8DFE803F023
:10960000780403780720A24623781C44ECE7E3782B
:10961000002BF9D1A37883B109F101095FFA89F927
:10962000F2E77268944200F09D8024369E42F8D39F
:109630004FF0FF3005B0BDE8F08F4F4E4F4BF5E7D0
:10964000002EF5D000230121327F9342F0D2326AFE
:10965000A77802EBC3021079874201D00133F3E708
:109660000127E07894F805C000F003008DF80C00A5
:10967000207940EA0C20ADF80A0094F90200002895
:109680005FFA87F828DA07F1100001FA00F010EA13
:109690000B0F29D168F07F008DF8080002A8CDE9F2
:1096A00000321EF009FCDDE900320121E0B99DF82D
:1096B0000830A37013F0800F1CBF08F110085FFA88
:1096C00088F813710B4615BF01FA08F8BB404BEA46
:1096D000080B4BEA030B97E701FA07F010EA0B0FB0
:1096E00002D18DF80880D9E70137102FB9D1B5E73D
:1096F000032D1DD1FFF72AFF074668B11BF0ABFB16
:10970000804648B11E481BF0A6FB804504D1424666
:109710003946A01C1BF0D4FB23786FF00201E2183D
:10972000091B04EB5303D14213D50135EDB26BE7AE
:10973000002DF1D1BAF1000F3FF47AAFA4EB0A0388
:109740008AF80230C3F307238AF803308AF80490BA
:10975000EBE74FF0000002F8010C13F8010902F8E2
:10976000020DE0E7B368002B3FF456AF49462046B0
:10977000984751E7D90D0020D90D0020D90D0020C0
:10978000A0B5040008B50448FFF724FF00280248EC
:1097900018BF002008BD00BF7C0D002010B5094B8C
:1097A00000211A461C78844205D15C681CB148200F
:1097B00000FB012010BD0131042903F14803F1D160
:1097C0000020F7E7D01A00202DE9F34150F8303C93
:1097D00010F8346C1033044610D1036950F8282C6B
:1097E00099073CD502BB13F0040304D11A4619466D
:1097F00030461AF03CF8002344F8303C54F8303C32
:1098000010330ED054F8205C5DB154F8247C54F829
:109810001C8C1FF059FA00284CD02E4821461FF00E
:10982000CAFB02B0BDE8F08150F82C1C01AB3046F9
:109830001AF01DF810B16FF01503DDE7019A54F826
:109840002C3C134444F82C3C54F8283C9B1A44F814
:10985000283C54F8243C134444F8243CCEE750F808
:109860002C1C01AB304614F0BBFA0028E3D1019D5B
:1098700054F82C3C2B4444F82C3C54F8283C5B1BFB
:1098800044F8283C54F8243C2B4444F8243C002D54
:10989000B1D0304614F048FBB5FBF0F303FB105594
:1098A000002DA8D154F8283C002BA4D0304614F049
:1098B000DFFAA3E744F8200CA4F1180018F02EF802
:1098C00054F8303C8C33ACD0424639463046A84739
:1098D000A7E700BF4819002010B54FF02003EFF3B1
:1098E000118483F31288BFF36F8FFFF757FF50B1D6
:1098F0004368103307D16FF08B03436000F13401EC
:1099000003481FF058FB84F31188BFF36F8F10BD1D
:10991000481900202DE9F041104CDFF8448004255F
:109920006FF08B074FF02003EFF3118683F312885B
:10993000BFF36F8F6368103305D104F134014046E3
:1099400067601FF038FB86F31188BFF36F8F013D0E
:1099500004F14804E6D1BDE8F08100BFD01A002030
:109960004819002070B50A4C0A4E002531462046A1
:109970001FF018FB0122A4F11800114601351FF059
:1099800091FA042D04F14804F0D1002070BD00BF0D
:10999000041B0020C99702000C4B1B6870B573B103
:1099A0000B4A15680022AA4202DB6FF0010070BD6D
:1099B0001C4613F8106B864204D00132F3E76FF0B7
:1099C0000C00F4E70C600020F1E700BF5403002016
:1099D000609F040070B588B005460C46C0B2694669
:1099E0001646FFF7D9FF00281FDB009BEBB15A6832
:1099F00002929A682168D8680195CDE90326002271
:109A0000CDE90612059217F0C1FB0546009819F042
:109A100046FF6DB12846084901AA1EF00BFC0798C5
:109A200008B9059B236008B070BD6FF01500FAE718
:109A30006FF01200F7E700BFA1380400104B2DE9CA
:109A4000F0411C6805460E461746ACB14FF0FF3298
:109A50004FF0FF330B4817F073FE63683246D3F8BC
:109A6000088029463B462046C0470446054817F073
:109A7000DFFE2046BDE8F0816FF00104F9E700BF8A
:109A8000F81B00205C0B002000230360044B5A6885
:109A900012B9C3E90000704710605860704700BFFA
:109AA000F01B0020014B1860704700BFF81B00201E
:109AB00030B585B000230546CDE9023301904FF063
:109AC000FF330C484FF0FF3217F03AFE0A4B1C6888
:109AD00034B1636820461B6801A998472468F7E7FA
:109AE000284600F0C1F80446024817F0A1FE2046BF
:109AF00005B030BD5C0B0020F01B00201FB5CDE988
:109B0000010103924FF0FF330A484FF0FF3217F084
:109B100017FE094B1C6834B1636820461B6801A915
:109B200098472468F7E7034817F082FE002004B046
:109B300010BD00BF5C0B0020F01B0020024B002278
:109B4000C3E90022704700BFF01B0020024B002237
:109B5000C3E90022FFF7F2BFFC1B002070B51B4CCD
:109B60001B4E0546B44212D31A4E1B484FF0FF322B
:109B70004FF0FF3317F0E4FD34687CB1286854F8E7
:109B8000141C143C1BF06EF9C8B16469F5E7216838
:109B900028681BF067F9A8B11434E3E77268002461
:109BA00005F114036C613AB9C6E9003314460A485A
:109BB00017F03EFE204670BD13607360F7E76FF04C
:109BC0001004F4E76FF01004F4E700BFB49A040047
:109BD0002C9B0400FC1B00205C0B00202DE9F341B2
:109BE00007460E4609B100230B601C4CDFF870805D
:109BF0000025444510D31B4B1C685CB301AA3846B2
:109C000054F8141C143C19F06DFE08B3CDB90EB114
:109C1000019B336025461BE0216801AA384619F0F4
:109C200061FE60B125B90EB1019B3360254606E0A7
:109C300029682068002219F055FE0028F3D1143459
:109C4000D7E729682068002219F04CFE0028DED1F1
:109C50006469D2E7284602B0BDE8F081B49A0400F6
:109C60002C9B0400FC1B0020F8B5184C184F06462E
:109C70000025BC4208D3174B1C6824B3143CAEB972
:109C8000E368DBB96469F8E71EB9E3684BB91434DB
:109C9000EFE720680022314619F024FE0028F4D1B5
:109CA000F5E79847002D08BF0546F0E72068002239
:109CB000314619F017FE0028E2D1E3E79847002D5E
:109CC00008BF0546DEE72846F8BD00BFB49A040089
:109CD0002C9B0400FC1B002010B5064C23783BB9DC
:109CE000FFF734FF00F064F808B90123237010BDBA
:109CF0000020FCE7C43B00202DE9F047048FDFF88B
:109D0000ACA0013498B080468946A4B200F10806A0
:109D1000651EADB2B5F5004F45D04A2305AA2946C8
:109D2000304619F09DFD04F57F543F34A4B2074638
:109D3000214601230DF10B02304619F091FD002F51
:109D4000014603DC002803DC2C46E1E7002816DC92
:109D5000B8F83830AB4209D142466B1E22F8383F82
:109D60004FF4004102233046FEF718FF29463046E3
:109D700019F01BFD2146304619F017FDE4E718AB3A
:109D80001F44002307F84C3C5246CDF8009003AB2B
:109D900005A80396ADF8104019F0DDFD0028D3D0DA
:109DA00018B0BDE8F0870020FAE700BFBD39040015
:109DB0007FB50123694602200193FFF7EDFD0446BC
:109DC000002836D102AA01A90220FFF703FE10F1F4
:109DD000130F04462DD038B10C3405D0404080F329
:109DE00011884FF0040002DF0399B1F5803F23D2C0
:109DF000009A002395681846084485429CB203D314
:109E00000133082BF8D11C460D4D5368AB60284632
:109E1000D368EC82A982EB6319F067FE044640B96F
:109E2000084E6E602846FFF72FFE28466E60FFF74B
:109E300039FE204604B070BD6FF02004F9E700BF82
:109E4000041C0020580300202DE9F84305464FF07C
:109E50002003EFF3118683F31288BFF36F8F0E4B4D
:109E60001C689CB10D4FDFF838804FF00C09D4E925
:109E70000132002D08BF13462BB198F8142009FBBE
:109E800002F2B85C98472468002CF0D186F3118860
:109E9000BFF36F8FBDE8F883441C00204C1C0020EA
:109EA000EC3A00204209012300F01F0003FA00F001
:109EB000074BBFF35B8FC04303EB820353E8002FD4
:109EC000024043E800210029F8D1BFF35B8F7047BF
:109ED000581C002030B51D4B1C7DBFF35B8F04F078
:109EE0001F0301229A401A4B610985B0D04303EB4E
:109EF000810353E8001F01EA000543E8005CBCF160
:109F0000000FF6D1BFF35B8F114217D0114D0C2219
:109F100002FB045207CA01AB83E807000E4A7AB17C
:109F200093E807001BF000F80020FFF78DFF0C23DB
:109F30005C432A1900232B51C2E9013305B030BD1F
:109F400082F31188BFF36F8FEEE700BFEC3A002079
:109F50005C1C00204C1C0020294F04002DE9F0431C
:109F6000354B364A1C7DBFF35B8F63094FEA83098B
:109F700052F82330324DBFF35B8F04F01F0843FAD1
:109F800008F313F0010F85B007460AD101462046B9
:109F900000F076F828B107C80C2303FB045383E8CC
:109FA00007000C236343EA18EE5C36B92046FFF73E
:109FB00079FF304605B0BDE8F0837B1C0FD0D2F8A6
:109FC00008C02048204A4FF4004600210023ECFB43
:109FD0000601FCF795F80121381A1FF08CF917F0EB
:109FE00003FF0120FFF730FFBFF35B8F012303FA6C
:109FF00008F8164B994459E8003F43EA080349E83A
:10A000000032002AF7D1BFF35B8F0C2303FB04550A
:10A0100095E8070001AB83E807000D4A1AB193E801
:10A0200007001AF06EFFFFF755FF2046FFF73AFFD3
:10A0300018F0A8F80120BDE7EC3A0020581C0020D9
:10A040004C1C00203F420F0040420F005C1C0020CF
:10A05000034F0400054BBFF35B8F53F82000BFF3A1
:10A060005B8FB0FA80F04009704700BF601C002091
:10A0700008B9024B0B600020704700BF649F0400CA
:10A080002DE9F04F85B00E4603A9FFF7F1FFDFF889
:10A0900074A0DFF87480441E24B24FF400474FF0E0
:10A0A0000009631C04D10025284605B0BDE8F08FE7
:10A0B000039A04EB440302EB830512F82300FFF735
:10A0C000C9FFE0B168684FF0000BD4465946E0FB89
:10A0D00007C142464B466046FCF712F80190A8685B
:10A0E000D4465946E0FB07C142464B466046FCF762
:10A0F00007F8721CD8D0019B1844B042D4D9013C57
:10A1000024B2CEE73F420F0040420F00014B1868D7
:10A11000704700BF68030020F0B5082289B019F02D
:10A12000AEFECB6A03930B6B04934B6B05938B6B67
:10A130000693CB6B079313466A460C4606460027E8
:10A1400011461046CDE90177009719F0AEFD314672
:10A150000546304619F0A9FD216B0391616B04910E
:10A16000A16B0591E16B0544CDE906171046114638
:10A1700019F09BFD31460544304619F096FD054423
:10A18000206A0090606A0190A06A0290A06B06901D
:10A19000E06B07903046CDE90477039719F085FD11
:10A1A0000544606A0090A06AD4F838C00190E06A63
:10A1B0000290CDF810C0606BD4F83CC00390CDE99C
:10A1C00005C0206A0790304619F06FFD0544E06A2B
:10A1D0000090206B0190606B0290206A0690A06A4C
:10A1E00007903046CDE90477039719F07BFE236B87
:10A1F0000093636B0193A36B0293E36B0393636A16
:10A200000693E36A07932D1A08233046CDE90477B5
:10A2100019F068FE636B0093A36B0193E36B0293E9
:10A22000236A0393636A0493A36ACDE90537236B1A
:10A2300007932D1A0823304619F054FEA36B0093A0
:10A24000E36BCDE90137636A0393A36A0493E36A7E
:10A25000CDE90537636B07932D1A0823304619F0B3
:10A2600041FE2D1A10D40D4C35B908223146204636
:10A2700019F011FE01280FD008232246314630463E
:10A2800019F030FE2D1AEFE7044A08233146304614
:10A2900019F00BFD2D18F8D409B0F0BD689F04002B
:10A2A0000449431E0F3013F8012F8A5C1A70834251
:10A2B000F9D17047C4B50400F0B5264E07460C46E8
:10A2C0000FCE8DB001AD0FC50FCE0FC596E80700BC
:10A2D00085E807003846002F38D0002C38D0381FCA
:10A2E0002146024610344B780D781B0443EA05637F
:10A2F000CD782B438D78043143EA05238C4242F814
:10A30000043FF0D1144C04218A07036916D1C3F32A
:10A310000742A55C1A0EA25C42EA0562C3F3072558
:10A32000DBB2655DE35C42EA054242EA03220CAD22
:10A3300021F003032B4453F82C3C534050F8042FD6
:10A34000013153402C290361DED101200DB0F0BD55
:10A350002046FBE7B49B0400C4B504000149102269
:10A360000A60704710ED00E072B6404080F311883B
:10A37000BFF36F8FBFF34F8F30BF62B6BFF36F8FE6
:10A38000704700BF72B6494081F3118820BF80F347
:10A39000118862B6704700BF43B2002B08DB012270
:10A3A00000F01F0002FA00F05B09024A42F82300A5
:10A3B000704700BF00E100E043B2002B0DDB01223B
:10A3C0005B0900F01F0002FA00F02033034A42F854
:10A3D0002300BFF34F8FBFF36F8F704700E100E0A2
:10A3E000054B420900F01F0053F82220012303FA15
:10A3F00000F01040704700BF00E100E043B2002BC6
:10A40000A8BF03F1604301F10101B8BF064B4FEA59
:10A410004111ACBF03F5614300F00F00C9B2B4BFF6
:10A42000195483F80013704714ED00E008B572B6B4
:10A43000044B9A691AB100229A611EF050FC62B670
:10A4400008BD00BFEC3A002030BFFFF7FDBF00BFE2
:10A450000F4A08B50F4B22F07F029A60BFF34F8F6F
:10A46000BFF36F8FD3F8882022F47002C3F88820DE
:10A47000EFF3148323F0040383F31488BFF36F8F87
:10A4800016F0F8FE17F0C2FF00F094F916F0FCFE8B
:10A490000060020000ED00E0094A0A49936809687B
:10A4A000D967094998674B6843F080534B60002394
:10A4B00083F31188BFF36F8F9368D86F704700BF25
:10A4C000EC3A002084B3040000ED00E00F498A68F4
:10A4D0004FF030001044EFF3098C80E8F01F20208B
:10A4E00080F31288BFF36F8F094F4FF00066CA697F
:10A4F0008A603E60906F0023936780F3118802F1B9
:10A50000300090E8F01F8CF309887047EC3A002087
:10A5100004ED00E01EF0040F0CBFEFF30880EFF332
:10A520000980816911F8021C0229FFD001B51AF0D7
:10A5300000FC01BD42F8203C009B42F81C3C0A494B
:10A54000019B42F8183C029B42F8143C21F00101A7
:10A550004FF0807342F8043C42F8081C0023203A74
:10A5600002658367704700BF512F0400074B986056
:10A57000104681F30988002163B681F31188BFF387
:10A580006F8F0022002318F0E3FC00BFEC3A00209C
:10A5900001B572B60B4A906900281EBF0021916177
:10A5A0001EF09DFB62B6EFF30580A0F110004FEAAC
:10A5B000C0000549014409C99847BDE80140034965
:10A5C00008470000EC3A0020E8980400D1A50200FA
:10A5D000044B9968D869884203D003494FF08052F0
:10A5E0000A607047EC3A002004ED00E00D4B9A6AD7
:10A5F0009A6A9A6A920508D59A6B9A6A120404D5E7
:10A6000018B19A6A22F400429A62064B9A6A9A6AD0
:10A61000D20558BF9A6A9A6A002042F47F429A6231
:10A620000870704700ED00E00E4B9A6A9A6A9A6AC9
:10A63000920708D55A6B9A6A120604D518B19A6A1D
:10A6400022F080029A62074B9A6A9A6A9A6AD20644
:10A6500058BF9A6A9A6A002042F0FF029A62087014
:10A66000704700BF00ED00E070B5484B5B688AB0F2
:10A670000E46C3F30803002585F31188BFF36F8FDF
:10A6800002F07F41B1F17F4F11D102F00C01082996
:10A690000DD0110701D4064601250022033B8DF899
:10A6A0000720032B6AD8DFE803F00454585C2E46D9
:10A6B000F3E7364BDC6A14F002045FD1DA6A002A51
:10A6C00014DBDA6A520011D5B26932F8021C4DF679
:10A6D0000272914209D093F8282002B30DF10701CC
:10A6E0000120FFF7A1FF044600E034689DF8073021
:10A6F0009BB92022314602A81AF0E2FB099B002DEB
:10A700003ED0C3F3080222B96FEA53236FEA432312
:10A71000099302A920461AF00AFB0AB070BD93F80B
:10A7200029202AB10DF107010120FFF75FFFDAE7C9
:10A730005A8D92B2002AD9D09A6A9A6A9A6A9A6A0B
:10A740009A6A9A6A9A6A6FEA02426FEA12429A62B7
:10A75000CCE70DF107010020C3E70DF10701002050
:10A76000E3E70A4B9A6A9A6A9A6A9A6A9A6A9A6AB2
:10A770009A6A6FEA02426FEA12429A620024B5E7CF
:10A7800023F4FF7323F00103C2E700BF00ED00E0F4
:10A79000024A536943F010035361704700ED00E033
:10A7A000EFF30880EFF3098101B57246FFF75CFF14
:10A7B00001BD00BF044800232021C2180133302B03
:10A7C00082F80013F9D1704700E100E01EF06AFF43
:10A7D000202080F3118808484FF40061401880F36E
:10A7E0000988EFF314800221084380F31488BFF333
:10A7F0006F8FFFF72DFE0000F05A0020064B9B687C
:10A80000834207D1EFF3058323B1044A536843F031
:10A810008053536017F096BDEC3A002000ED00E045
:10A82000024B034A0348012100F05EB800000420F7
:10A830000000002014A00400F0B51F4F00268E4237
:10A8400001DB1046F0BD44689CB353B104F1FF3CFA
:10A8500014EA0C0F18D11F2C16D905681CEA050F35
:10A8600012D1202C0568D0F808C0D2B20FD9B4F1AB
:10A87000004F0ED8013CB4FA84F4C4F11F04640004
:10A88000072A4CEA040406D96FF01502D9E7082418
:10A89000F6E73E24F4E725F01F05154345F01005C3
:10A8A00044F00104C7F89820C7F89C500132C7F85B
:10A8B000A04001360C30C2E700ED00E0044B052259
:10A8C000C3F89420BFF34F8FBFF36F8F704700BF63
:10A8D00000ED00E0BFF35F8F024B0022C3F894202D
:10A8E000704700BF00ED00E010B5034C0123227853
:10A8F000FFF7A2FF207010BDC53B00201449086877
:10A90000082810B521D8FFF7E5FF124C496800224E
:10A91000904201F10C0105D10F4B1870FFF7CEFFEB
:10A92000002010BDC4F8982051F80C3C23F01F0300
:10A93000134343F01003C4F89C3051F8043C43F037
:10A940000103C4F8A0300132E2E74FF0FF30E8E73E
:10A9500020A0040000ED00E0C53B00200CB41FB5B2
:10A9600009B90DF10300CDE9020107AB069A0648CB
:10A97000019302A9FDF7F6FC029B00221A7005B0B4
:10A980005DF804EB02B07047E94E04004FF020037D
:10A99000EFF3118283F31288BFF36F8F064901230F
:10A9A000C1F840354FF08041C1F8783582F3118805
:10A9B000BFF36F8F0020704700E001404FF08043ED
:10A9C000C0B2C3F81C05BFF34F8F0549054BCA68D9
:10A9D00002F4E0621343CB60BFF34F8F00BFFDE78B
:10A9E00000ED00E00400FA0520B1034B800143F0C4
:10A9F00001031847704700BF409C040070B5214C0C
:10AA0000BFF35B8F2368BFF35B8FDA0706460D4603
:10AA100001D50C2070BD012931D8BFF35B8F54E8FC
:10AA2000003F43F0020244E800210029F7D1BFF3C0
:10AA30005B8F9B07EDD4144831461AF0EBFA1348AC
:10AA400006F120011AF0E6FABFF35B8F75B154E806
:10AA5000003F43F0040344E80032002AF7D1BFF37B
:10AA60005B8F0B4816F05AFF0020D3E754E8003FF5
:10AA700023F0040344E80032002AF0D0F6E7122065
:10AA8000C8E700BF7C1C0020E63B0020063C0020FD
:10AA9000E40B00202DE9F843604FDFF884813E4647
:10AAA0004FF0FF324FF0FF33404616F05DFFBFF32B
:10AAB0005B8F3C68BFF35B8F14F0010455D0DFF867
:10AAC0006491594C594D5A484A46214619F041F86B
:10AAD00000283ED02022294620461AF0E0F900281E
:10AAE000F1D04FF000094FF0FF324FF0FF3301205B
:10AAF00000F00EFA00F108050221044628461DF078
:10AB000081F93E23037042234370012128461DF042
:10AB100079F908230370412128461DF073F9054691
:10AB200000F8019BB9F1000F16D0402200211AF065
:10AB3000D2F9BFF35B8F56E8003F23F0010346E8EC
:10AB40000032002AF7D1BFF35B8F204600F026FECB
:10AB5000A6E74FF01F09C6E735491AF05BFA203126
:10AB600005F121001AF056FAE3E7BFF35B8F3B686B
:10AB7000BFF35B8F9B0793D52A492D4819F0A2FE9E
:10AB8000002811DBBFF35B8F3B6827492748BFF3E1
:10AB90005B8F13F0040F01F12002224B18BF014616
:10ABA000104619F025F804464FF0FF324FF0FF33FE
:10ABB000012000F0ADF900F10809022105464846E0
:10ABC0001DF020F93E2303702223437001214846E3
:10ABD0001DF018F909230370212148461DF012F9D0
:10ABE000034601309CB91F221A70FF2120221AF05F
:10ABF00072F9BFF35B8F56E8003F23F0020346E88B
:10AC00000032002AF7D1BFF35B8F28469EE700226F
:10AC100007491A701AF0FEF9EBE700BF7C1C002010
:10AC2000E40B002040A00400C63B0020DAB604007C
:10AC3000E63B002070B5067D044676B983681D8822
:10AC400042F22602954245D00FD842F201029542C7
:10AC50004FD042F225039D4213D02A4BD3F85431F2
:10AC600020461B69BDE87040184742F25E039D42D2
:10AC7000F3D1032108301DF0E4F8A06890F84010EB
:10AC80002EE0032108301DF0DCF8204612F080FB96
:10AC9000BFF35B8F1C4B1A68BFF35B8F920707D51E
:10ACA0000C26314642F225001AF090F9002070BDC2
:10ACB000BFF35B8F53E8002F42F0010143E800101F
:10ACC0000028F7D1BFF35B8FD307E9D40F4816F004
:10ACD00025FEE6E7032108301DF0B3F8A0683146F1
:10ACE000FFF78CFE0646204612F052FB31462846FE
:10ACF000DAE7DA7802F07F02DA701A7922F00102DC
:10AD00001A71AAE7000000207C1C0020E40B002040
:10AD100010B588B00C4C0D4900220023CDE9062364
:10AD200000230A22CDE90323CDE9013300934FF438
:10AD30008F62074B204616F0AFFB0649204608B04D
:10AD4000BDE810401DF0C6BFB00E0020183F002027
:10AD500095AA0200D3B6040003490448CA79C2EB9D
:10AD6000C202FEF76BBE00BF00000020FAB604006E
:10AD7000F7B516461F46044620B96FF00104204679
:10AD800003B0F0BD01A918F0D0FD114902462046DC
:10AD90001AF074F804460028EFD1BFF35B8F0D4D15
:10ADA0002B68BFF35B8F5B07E9D4CC3D07222946B4
:10ADB0003846B047062806D80722214628461AF00A
:10ADC0008AF8EC71DBE70723B0FBF3F0E871D6E714
:10ADD000F6B40400CC0000202DE9F04188B09C7945
:10ADE000DDF838805D791E79DF7893F802C093F83A
:10ADF00001E01B78B8F1000F0ED0CDE90638CDE99F
:10AE000004CE1346CDE90267CDE90045084A17F0A4
:10AE10008CFF08B0BDE8F081CDE905E3CDE9037C06
:10AE20001346CDE90156034A009417F07EFFF0E780
:10AE300000B7040024B70400014816F0DBBE00BFD1
:10AE40006C03002010B5154CE379E3B1BFF35B8FC1
:10AE5000134C2368BFF35B8F9B0701D400F054FDB4
:10AE6000BFF35B8F54E8000F20F4804344E80032C6
:10AE7000002AF7D1BFF35B8F10F480400DD0FFF7AD
:10AE8000DBFF002009E000F0E3FF30B9E379002B9D
:10AE9000DCD101F01DF80028D8D010BD0000002042
:10AEA000CC00002030B4034608461A78012A13D09B
:10AEB000022A26D072B9154A02F1100452F8045B36
:10AEC00041F8045BA242F9D15B8812780A7043739F
:10AED0001B0A837330BC70470C4A02F1100452F80D
:10AEE000045B41F8045BA242F9D15B6812780A70F6
:10AEF000C3F3072243731B0CC3731B0A82730374CF
:10AF0000E8E730BC1122194619F0DABF45B7040052
:10AF100038B5054605481CF013FF044620B1002152
:10AF200008301CF02CFF2575204638BD240D00206C
:10AF30000B460B490246D1F8380110B520B9BDE8DF
:10AF400010400120FFF7E4BF1CF02AFF012300217D
:10AF500003758181044608301CF011FF204610BDA6
:10AF60000000002070B504460F2C0D46104619460F
:10AF700005D80D2C12D9BDE87040FFF7D9BF132CAE
:10AF80000CD10B481CF0DCFE044628B1002108302F
:10AF90001CF0F5FE01232375204670BD02460B46CA
:10AFA0000DB10448EEE7BDE870400120FFF7B0BFE7
:10AFB000500D0020A00C002038B583681A7872B9B3
:10AFC000B3F80140204601F0EBFC054640B9084BC0
:10AFD0001A8822B96FEA04506FEA1050188038BD01
:10AFE000012101F0E5FC2846BDE838401AF019BF00
:10AFF0002C3B002010B50121044608301CF029FF2D
:10B000002146034A0078BDE810400A231AF0AFB881
:10B0100020A1040013B50C4C0146052294F86700EA
:10B0200001F0C0FE70B9094B18689A8800909B79AE
:10B03000ADF8042094F867008DF8063004226946C4
:10B0400001F0B0FE02B010BD00000020EE9B040035
:10B05000F8B5074690790E46144612F0D5F82D4BF8
:10B06000834255D1204612F0D7F82B4D0C2303FB19
:10B0700000504388BB424BD1284FD7F8380120B14C
:10B0800012F086F90023C7F83831204612F0C4F8D0
:10B090000C2707FB00504368A3B19EB9204612F06D
:10B0A000BBF807FB005001234768D7E9002000F0F8
:10B0B0001F0103FA01F13B7A4009D3B102EB800092
:10B0C0001AF082F8204612F0A7F80C2707FB005070
:10B0D0008368EBB1204612F09FF878432E54204647
:10B0E00012F09AF807FB0055A868BDE8F84016F082
:10B0F00015BCCB4302EB8002BFF35B8F52E8001F0D
:10B10000194042E800100028F8D1BFF35B8FD9E75F
:10B11000F8BD00BFF80C0020841C002000000020B7
:10B1200038B50421044608301CF093FE45780178B8
:10B1300040882246FFF78CFF25B10348BDE8384020
:10B1400016F0ECBB38BD00BF2001002038B503214C
:10B15000044608301CF07DFEA36805781978B0F825
:10B1600001002246FFF774FF25B10348BDE83840CF
:10B1700016F0D4BB38BD00BF200100202DE9F84FE8
:10B18000DFF80881DFF808A1D8F80C3041486FF3E8
:10B190005233C8F80C3001F0CFFB451C3B484FF050
:10B1A000FF324FF0FF33294617F01AFB60B13A49DE
:10B1B0003A4840F69313524617F0AAFD404080F3F8
:10B1C00011884FF0030002DFDFF8D4902F4EA9F56D
:10B1D0009E77A9F11C0B15B916F0FCFFD4E7F368B4
:10B1E000C3F34533042B47D1337B002B47D10022D7
:10B1F000002348461CF0A9FD044660B929492748A8
:10B2000040F62A13524617F083FD404080F3118820
:10B210004FF0030002DF4FF0FF324FF0FF3358468C
:10B2200016F0A2FBD7F8380120B112F0B1F80023D4
:10B23000C7F8383120461CF0B3FDC7F83801204666
:10B24000FFF7F8FCC0B1184816F068FB204611F073
:10B25000E3FF164B0C2202FB00301F2140882246E0
:10B26000FFF7F6FED7F8380112F092F800232046D7
:10B27000C7F8383112F08CF81436013DABE7012BDA
:10B28000FAD13069383801F083FEF5E77C030020FD
:10B2900056B70400900300208AB7040093B7040057
:10B2A0003C010020B0B7040020010020841C0020D5
:10B2B00010B5C1E900239DF808300B720C4611F05F
:10B2C000ABFF034B0C2202FB00335C6010BD00BFE0
:10B2D000841C00202DE9F0474FF0FF324FF0FF3380
:10B2E00006461748174D0F461CF02AFD044600F18C
:10B2F000080A00214FF0000850461CF040FD84F879
:10B300001480204611F088FF4FF00C0909FB005013
:10B310004680204611F080FF09FB0050C0F80880ED
:10B32000204611F079FF09FB00550321C5F8048080
:10B3300050461CF067FD877006802046BDE8F08708
:10B34000F80C0020841C002038B505460C4619B9BD
:10B35000FFF7C0FF044698B140F635439D4209D13E
:10B360002046FFF767FC054610B1204612F010F8A2
:10B37000284638BD044821461CF005FD0025F7E7A6
:10B380006FF06805F4E700BF3C010020F0B51546FA
:10B3900087B00C4621B9FFF79DFF0446002848D02E
:10B3A0000122002168461DF07DFD204611F034FF8A
:10B3B000214F0C2303FB0070C0F808D020461CF07E
:10B3C000EFFC01461D481CF0DEFC4FF4A0220023D8
:10B3D000684616F0C9FA064680B1194A19491A4852
:10B3E00040F2311317F094FC1848314617F090FCE6
:10B3F000404080F311884FF0030002DF204611F037
:10B400000BFF0C2358433E5C56B1204611F0C0FFA1
:10B41000092E0CBF6FF06E006FF0040007B0F0BD96
:10B4200015B12C603046F9E7204611F0B1FF2846EF
:10B43000F4E76FF06800F1E7841C00203C01002075
:10B4400056B704008AB7040093B70400B4B70400E9
:10B450000138C0B202289ABF014B185C0020704727
:10B460005DB804007FB5437B072B044657D1BFF37B
:10B470005B8F4368BFF35B8F9B0400F104061BD412
:10B48000C37823B1274B93F8D0301D0714D5022180
:10B4900042F21600FFF71EFF054668B10221083090
:10B4A0001CF0B0FC23880380294642F2160004B049
:10B4B000BDE87040FFF748BFBFF35B8F6368194D6D
:10B4C000BFF35B8F13F4805FC3F3003111D195F8A4
:10B4D000D130D8070DD5022300911A4620461AF024
:10B4E0005CF830B98021304604B0BDE8704019F0F6
:10B4F0006BBE95F8D0309A0611D5D5F854319B68BB
:10B500009B070CD50DF10E0103A819F0F6FF30B919
:10B51000BDF80E20BDF80C1020461AF021F804B03A
:10B5200070BD00BF000000202DE9F043B0F80170AD
:10B530006B4A6FEA075311886FEA13539BB2994223
:10B5400005464FF0000608BF168085B008BF0126EB
:10B5500000F0CAFA2C781FFA87F804B33C2C59D1B2
:10B5600000F0C4FDBFF35B8F103050E8003F23F0C4
:10B57000400340E80032002AF7D1BFF35B8F002080
:10B58000FFF748FD0546002844D00473002101F070
:10B590000FFA284605B0BDE8F0431AF042BC2B79FB
:10B5A000023B012B05F1040937D80722494602A8BE
:10B5B00019F086FC9DF808300622023B05F11101C6
:10B5C0000DF101008DF8083019F07AFC01238DF897
:10B5D0000030EB78012B19D102A8FFF71BFDEB78A7
:10B5E000012B044611D100F081FDBFF35B8F00F108
:10B5F000100353E8002F22F0400243E80021002905
:10B60000F7D1BFF35B8F1AF03DFBDCB91F21404639
:10B6100019F08BFF05B0BDE8F083EB78012B04BF78
:10B62000304B93F86740494620461AF0B3F9072299
:10B63000014602A819F044FC07224946684619F061
:10B640003FFCC6E72046072220F8887B02A919F0B4
:10B6500037FC2A7EEB7D43EA0223A4F89E30AA7EC3
:10B660006B7E43EA0223A4F8A4302A7FEB7E43EAF0
:10B670000223A4F8A630EB78E37000222273012B9A
:10B6800040F20112A4F8B82017D10722694604F14C
:10B690008F0019F015FC00F029FD217A114DC1EB46
:10B6A000C1010722294404F1960019F009FCD5F8DC
:10B6B000DC305B0601D500F0C5FE0721204601F015
:10B6C00077F91EB10121204601F072F920461AF0E7
:10B6D000E3FB2046FFF7C6FE20461AF0A2FB99E7DF
:10B6E0002C3B00200000002029289ABF014B185C49
:10B6F0000920704760B804002DE9F041044600F1CC
:10B70000080630461CF0B5FBB4F80C80B8F1010F08
:10B7100005460CD81C4A1D491D4840F62F5317F00A
:10B72000F7FA404080F311884FF0030002DF304603
:10B7300002211CF08EFB0746007819F006FDC207B7
:10B7400006460CD4104A1349114840F6335317F0FB
:10B75000DFFA404080F311884FF0030002DF052339
:10B760000D4A3878214619F002FDB30707D5206944
:10B77000A4F80C8010FA85F5A560BDE8F08120469C
:10B78000BDE8F04111F004BE56B70400D4B7040080
:10B7900093B70400EDB70400B0A1040070B53B4DB1
:10B7A0002B68044613B916F0B7FD2860237D012BE2
:10B7B00036D0032B63D1A389032B0CD8344A3549E7
:10B7C000354840F2B51317F0A3FA404080F31188D2
:10B7D0004FF0030002DF042104F108001CF039FBE4
:10B7E000FF22438806886275A289C6F30B009A423D
:10B7F000E08203D0204611F0CBFD0FE001F0D0F83D
:10B8000005460028F6D001F07BF9320B6075214621
:10B8100028461AF09EFA28461AF003FB002070BD55
:10B82000A389012B0CD81A4A1A491B4840F6171352
:10B8300017F06EFA404080F311884FF0030002DFEA
:10B84000022104F108001CF004FB0546007819F001
:10B850007CFC83070CD40E4A10490F4840F61B139A
:10B8600017F056FA404080F311884FF0030002DFD2
:10B870000B4A28780623214619F079FCBAE72046BE
:10B8800011F086FD6FF01500C9E700BF801C002095
:10B8900056B70400D4B7040093B7040006B80400F8
:10B8A00080A1040010B5037D012B04460CD0094A89
:10B8B00009490A4840F67C5317F02AFA404080F3C1
:10B8C00011884FF0030002DF2046FFF715FF00202C
:10B8D00010BD00BF56B7040034B8040093B704008D
:10B8E000084A0346D2F8540130B9D96839B1196908
:10B8F00029B1C2F8543170476FF0770070476FF08C
:10B9000015007047000000200148022119F05CBCBE
:10B91000CC00002010B5FAF763FD034B1B6813B190
:10B92000BDE81040184710BD9C1C002070B5224D8A
:10B93000D5F8543188B00646002B37D0012105F1E7
:10B94000CC0019F041FCC30733D419F0A5FB044621
:10B9500048BB1A4B1E6000220023CDE906236FF07E
:10B960000803CDE90203CDE900000490144B15490A
:10B9700015484FF4207215F08FFD144912481DF040
:10B98000A9F9FFF7C5F9D5F85431DB6898470446A3
:10B9900048B926B908B0BDE87040FAF721BD05F1F5
:10B9A000BC0016F027F9204608B070BD6FF01204F5
:10B9B000F9E76FF07704F6E7000000209C1C0020F8
:10B9C0007DB1020090430020300F002057B80400E2
:10B9D0000048704784B50400F8B50B4F06460025B3
:10B9E000FB79ECB2A34202D86FF0010409E0C4EB8A
:10B9F000C40107223944304619F051FA01350028B4
:10BA0000EED12046F8BD00BF0000002038B5144933
:10BA10000622054619F043FA0446E0B1062142F237
:10BA20000500FFF757FC0446B8B106222946083046
:10BA30001CF0EEF92146002242F20500FFF7A6FCB9
:10BA4000044640B906220648294619F039FA054B42
:10BA5000012283F86020204638BD6FF06804FAE7C1
:10BA6000610000200000002030B5044685B00D467E
:10BA7000E1B10023072202A928460293CDF80B303A
:10BA800019F00DFA90B11648C4EBC40429462044BD
:10BA900019F0FDFE134819F0FDFE8207C0F34003C4
:10BAA0001BD5FFF7C9F9002005B030BD684619F075
:10BAB0003EFB0028F8D16846FFF78EFF0028F5DA34
:10BAC0000748C4EBC40404446946204619F0DFFE6D
:10BAD000002DDFD021462846DAE71846E4E700BF0C
